:020000040800F2
:10000000E005002045010008AF1E0008031E00089F
:10001000AD1E0008790800080B2000080000000051
:10002000000000000000000000000000B31E0008F7
:100030002309000800000000B11E0008B51E0008DA
:100040005F0100085F0100085F0100085F01000810
:100050005F0100085F0100085F0100085F01000800
:100060005F0100085F0100085F0100085F010008F0
:10007000E10800085F0100085F0100085F01000857
:100080005F0100085F0100085F0100085F010008D0
:100090005F0100085F0100085F0100085F010008C0
:1000A0005F0100085F0100085F0100085F010008B0
:1000B0005F010008091F00085F0100085F010008D8
:1000C0005F0100085F0100085F0100085F01000890
:1000D0005F0100085F0100085F0100085F01000880
:1000E000250900085F0100085F0100085F010008A2
:1000F0005F0100085F0100085F0100085F01000860
:100100005F0100085F0100085F0100085F0100084F
:100110005F0100085F0100085F0100085F0100083F
:100120005F0100085F010008ED0800085F0100089A
:10013000DFF80CD000F08EFB004800474D2000088F
:10014000E00500200648804706480047FEE7FEE736
:10015000FEE7FEE7FEE7FEE7FEE7FEE7FEE7FEE777
:10016000071F000831010008202A04DB203A21FA89
:1001700002F00021704721FA02F3D040C2F12002C0
:100180009140084319467047D2B201E000F8012BB4
:10019000491EFBD270470022F6E710B513460A4607
:1001A00004461946FFF7F0FF204610BDF0B480EA80
:1001B0000102D40F4200B2EB410F02D202460846C0
:1001C00011464A0042D0C30DDDB2C1F3C752AD1A89
:1001D000202D35DAC1F3160141F4000204B1524278
:1001E000C5F1200602FA06F12A411044B3EBD05FB4
:1001F00023D0C4B1012DA0EBC35009DCF0BC4FF0FB
:10020000004202EAC352DBB200F5000000F097BAE8
:10021000400000F1807000EBC350A0F1807040EA14
:10022000D170490009E0490841EAC071A0EBC35010
:1002300000F50000400800EBC350F0BC00F076BAB7
:100240006142012202EB4101001BF6E7F0BC70475E
:1002500081F00041AAE780F00040A7E780EA0102B0
:1002600010B502F00043400022D04A001FD0010E1A
:1002700001EB1261C0F35600C2F3560240F40000D5
:1002800042F40002A0FB022000047F39140400D0D5
:10029000401C50EA124001D44000491EC2B20C0674
:1002A00004EBD010401C4008802A02D003E000205C
:1002B00010BD20F00100002900DA0020184310BD15
:1002C0002DE9FE4F804681EA0300C00F0C460090E6
:1002D00021F0004123F00045B8EB0200A94105D20E
:1002E0004046214690461C460B46024623F00040FD
:1002F000104347D0270DC7F30A00C3F30A510290F9
:10030000401A019040286BDAC3F3130040F4801BBD
:100310000098924620B10023D2EB030A63EB0B0B4B
:1003200001985946C0F14002504600F0DEF90646F9
:100330000D4650465946019A00F0E6F910EB0800C8
:100340006141002487EA115284EAE7731A4340D0DE
:10035000009A62B3019A012A4FEA075215DC001B8A
:1003600061EB02014FF0004202EA0752CDE9004280
:10037000001C41F5801132462B4600F01DFA03B0F7
:10038000BDE8F08F40462146F9E7001B61EB020112
:10039000001C41F5801300185B412018A2F50017DE
:1003A00047EB030140EAD570B6196D4111E06D08C5
:1003B0004FEA360645EAC0754FEA0752001B61EB6B
:1003C0000201001C41F5801149084FEA3000001974
:1003D000514132462B4603B0BDE8F04F00F0DDB985
:1003E0000098012240000023D0EB020263EBE0738F
:1003F000009821464FEAE074B8EB000061EB04017D
:10040000E9E783F000435BE781F0004158E72DE91D
:10041000FE4F81EA030404F0004421F000410094FF
:100420004FF0000B23F0004350EA01045ED052EA83
:1004300003045BD0C3F30A54C1F30A552C44A4F25D
:10044000F3340194A0FB0254C1F3130141F4801171
:10045000C3F3130343F4801301FB024400FB034E78
:10046000840A970A44EA815447EA8357A4FB076841
:1004700002958D0A05FB07854FEA932C04FB0C546B
:100480002705029D4FEA065847EA1637B5EB0805DF
:100490006EEB070C870E920E47EA811742EA831231
:1004A000A7FB0201B6EB0B0164EB00042B0D43EA42
:1004B0000C335E1844EB1C50DA465146E7FB020150
:1004C000C5F313044FEA0B3343EA14534FEA0432E3
:1004D000019C43EA0603A4F10C040294009CCDE9BC
:1004E00000B400F069F903B0BDE8F08F00200146C8
:1004F000F9E72DE9F04D81EA030404F0004B21F007
:10050000004514464FF0000A23F0004150EA05026E
:1005100020D054EA01021DD0C5F30A570246C5F3A4
:100520001303C1F31300C1F30A5640F4801543F4DA
:100530008013A7EB0608101BD64608F2FD3873EBB4
:10054000050002D308F1010801E092185B41B8F1FF
:10055000000F03DA00200146BDE8F08D00204FF4C3
:100560008011064684460EE0171B73EB050705D382
:10057000121B63EB050306434CEA010C49084FEAE2
:10058000300092185B4150EA0107EDD152EA0300B6
:1005900012D082EA040083EA0501084305D0101B4B
:1005A000AB4106D20122002306E000224FF00043B7
:1005B00002E06FF0010253101AEB06004CEB0851F9
:1005C00010EB0A0041EB0B01BDE8F04D00F0E5B87F
:1005D00070B521F0004303430CD0C1F30A55002449
:1005E000D5EB040564EB0403D617AD1AB34102DB67
:1005F0000020014670BD201841EB025170BDC10FB3
:1006000080EAE0700844CA079623002100F097B8FA
:100610000EB5C10F80EAE0700844CA07002140F21D
:1006200033438DE80E000A460B4600F0C5F803B0D0
:1006300000BD20F00040C10DC0F3160040F40000E2
:100640007F2901DA00207047962903DCC1F1960169
:10065000C8407047963988407047C1F30A5210B5B8
:10066000C1F3130140F2FF3341F480119A4201DAE1
:10067000002010BD40F233439A42A2F2334203DC21
:100680005242FFF771FD10BD904010BD00F00042D6
:1006900030F000400AD0C10D01F56071C0F31600C2
:1006A00042EA0151C2084007114370470020014649
:1006B000704701F0004330B421F0004150EA0102DC
:1006C00006D00A0DA2F56072C1F31301002A02DC04
:1006D00030BC00207047440F44EAC104C100E01858
:1006E00030BC00EBC25000F021B8202A04DB203AD5
:1006F00000FA02F1002070479140C2F1200320FA75
:1007000003F3194390407047202A06DBCB17203AA9
:1007100041FA02F043EAE07306E041FA02F3D04006
:10072000C2F1200291400843194670470029A8BF32
:100730007047401C490008BF20F00100704710B40A
:10074000B0FA80FC00FA0CF050EA010404BF10BCBF
:10075000704749B1CCF1200421FA04F411FA0CF1EC
:1007600018BF012121430843A3EB0C01CB1D4FEA25
:1007700000614FEA102042BF002010BC704700EB20
:10078000C35010440029A4BF10BC7047401C49004E
:1007900008BF20F0010010BC704710B5141E73F1A3
:1007A000000408DA401C41F1000192185B411A4331
:1007B00001D120F0010010BD2DE9F04D92469B467D
:1007C00011B1B1FA81F202E0B0FA80F22032904623
:1007D000FFF78BFF04460F4640EA0A0041EA0B018F
:1007E00053465A46084313D0114653EA010019D024
:1007F000C8F140025046FFF7B7FC05460E4650468A
:1008000059464246FFF771FF084305D0012004E036
:1008100020463946BDE8F08D0020054346EAE076E3
:100820002C4337430A986305E40AA0EB0800002232
:10083000FD0A44EA47540A3002D500200146E9E7A0
:10084000010510196941DDE9084500196941BDE854
:10085000F04DA2E7064C074D06E0E06840F00103CA
:1008600094E8070098471034AC42F6D3FFF764FCD5
:10087000D0210008F0210008FEE710B5446A2046A8
:1008800000F07FF80120207110BD10B5446A2046A9
:1008900000F04DF80120207110BD10B5446A2069A8
:1008A00040F004002061204600F06DF80120207126
:1008B00010BD10B5446A206940F004002061204654
:1008C00000F037F80120207110BD10B5406A00F02B
:1008D00059F810BD10B5406A00F02AF810BD0000AC
:1008E000014800F0A7B900009C010020014800F079
:1008F000A1B900005801002030B590F84050012403
:10090000AC40C56B6C60046863604368102B03687F
:1009100003D099600068C26030BD9A600068C16011
:1009200030BD70474FF4004000F090BB70477047F7
:100930007047704770B54379012B20D00125457170
:10094000022303710668346802F0100340F6FE7259
:100950009A409443D1E900210A439A4022433260ED
:1009600002681468C02199408C43146002681368BF
:100970008B431360057100214171084670BD022050
:1009800070BD70477047704770B5040003D0207980
:10099000002510B105E0012070BD6571204600F012
:1009A00007F802202071256101202071002070BD10
:1009B00070B586B00026054600960196029603960D
:1009C00000681A4988422FD11949C86940F000507F
:1009D000C861C86900F000500490886940F00400C4
:1009E00088618869694600F0040004903020009016
:1009F000032001900F4800F035FB104C0E4820609A
:100A00001020C4E901068020E060400020618000E1
:100A100060612020C4E90606204600F02FFA08B1E4
:100A2000FFF784FFAC60656206B070BD00740040E3
:100A3000001002400008014030040240580100202C
:100A400018B5046800940068104421B11430009077
:100A50000360002018BD0830F9E770B54279012A1B
:100A60001ED001224271022303710468266801F03E
:100A7000100302FA03F52E4326600029016811D005
:100A80000C6804F470153C249C40A54203D14B68CB
:100A900043F002034B60027100214171084670BDB2
:100AA000022070BD0B68C3F383030F2BF3D14B6897
:100AB00043F00103EEE700002DE9F04104460D4646
:100AC0001746617900220698012920D00126667117
:100AD00002212171F5B1D4F80CC02F49CCF82810AF
:100AE000D4F80CC02D49CCF82C10D4F80CC02C49EB
:100AF000CCF830102168D1F800C04CF0805CC1F80F
:100B000000C068B304282ED0082831D12EE002207E
:100B1000BDE8F081D4F808C02249CCF82810D4F8F8
:100B200008C02149CCF82C10D4F808C01F49CCF8D3
:100B300030102168D1F800C04CF4805CC1F800C0CE
:100B400020B1042805D0082808D105E02268083221
:100B500004E022680C3201E022681032A06808E04C
:100B60002268143204E02268183201E022681C3244
:100B7000E068394600F0C0F90021617120B12169B7
:100B800041F004012161C3E721680A6805F0100300
:100B90009E4032430A60BBE78B080008D508000876
:100BA000B30800087B080008CB0800089B08000871
:100BB00070B504460068036801F010024FF48055D8
:100BC0009540AB43036020680368012505FA02F2F3
:100BD0009343036031B1E06800F008F820B10421CC
:100BE000217170BDA068F7E7257170BD10B590F850
:100BF00021100022022905D00421816380F82020E1
:100C0000012010BD01680B6823F00E030B60016822
:100C10000B6823F001030B6090F84030C46B012196
:100C200001FA03F3636080F8211080F82020104659
:100C300010BD00002DE9F05FC16B0A6801680B6808
:100C4000046C4FF0040808FA04F8844D844E854F74
:100C5000DFF814C2DFF81492DFF814A2DFF814B240
:100C6000DFF814E218EA020F65D05FEA437862D534
:100C70000A68920603D40A6822F004020A60DFF8C8
:100C8000F0814FF48062016808F114081301140226
:100C9000414524D9A9420DD0B1420FD0B9421AD052
:100CA000614515D0494515D0514501D1120312E0D7
:100CB000594501D104220EE0714501D140220AE0DC
:100CC0006D4D1435A94206D06B4A2832914201D1AC
:100CD0001A4600E022466749091F0A6029E0A94236
:100CE00013D0B14215D0B94220D061451BD049453F
:100CF0001BD0514502D14FF4800217E0414502D18B
:100D00004FF0806212E0594501D104220EE0714596
:100D100001D140220AE0584D1435A94206D0564A66
:100D20002832914201D11A4600E022464B49083947
:100D30004A60C16A71E04FF0020808FA04F818EA44
:100D4000020F70D05FEA83786DD50A68920606D4E8
:100D50000A6822F00A020A60012180F82110DFF8F7
:100D600010814FF40072016808F114081301140295
:100D7000414524D9A9420DD0B1420FD0B9421AD071
:100D8000614515D0494515D0514501D1120312E0F6
:100D9000594501D102220EE0714501D120220AE01D
:100DA000354D1435A94206D0334A2832914201D13B
:100DB0001A4600E022462F49091F0A6029E0A9428D
:100DC00013D0B14215D0B94220D061451BD049455E
:100DD0001BD0514502D14FF4001217E0414502D11A
:100DE0004FF0007212E0594501D102220EE0714528
:100DF00001D120220AE0204D1435A94206D01E4A16
:100E00002832914201D11A4600E02246134908399E
:100E10004A60002180F82010816A00291CD0BDE8BA
:100E2000F05F0847FFE70825A540154214D01A07D0
:100E300012D50A6822F00E020A6090F84020C36BB7
:100E4000012101FA02F25A60816380F82110002129
:100E500080F82010016BE0E7BDE8F09F0800024039
:100E60001C00024030000240440002405800024092
:100E70006C000240080402401C04024030B560B11E
:100E80001A4B026814219A4209D2194B1344B3FB3E
:100E9000F1F18900016417490AE0012030BD134BCC
:100EA0005B421344B3FBF1F1890001640F49083937
:100EB000C163022180F82110136843F6F0718B435F
:100EC000F0E901142143D0E902452C432143046990
:100ED000214344692143846921431943116000215E
:100EE0004163012242770177084630BD0804024081
:100EF000F8FFFDBF0000024070B5044690F82000E6
:100F0000002501280CD0012084F8200094F82160ED
:100F10000020012E06D084F820000225284670BD4E
:100F2000022070BD022684F82160A0632068066854
:100F300026F0010606602046FFF7DEFCE06A002886
:100F40002068016802D041F00E0106E021F00401A2
:100F500001602068016841F00A01016020680168B1
:100F600041F001010160D9E72DE9F84FB0F5004FDC
:100F70005ED1304800F09AFD2E48483800F096FDCA
:100F80002C4800215C38FFF713FE2B4D4FF07E5AA2
:100F900051462868FFF70AF907462860FFF776FBF5
:100FA000264A274BFFF733FA4FF0FF32FFF710FBCB
:100FB0004FF06632234BFFF79CFA0C22FFF708FB39
:100FC000FFF777FB00262E618346A860344605F1C3
:100FD00014086868FFF713FBDFF85890CDF800009D
:100FE00009F1480958F824105846FFF737F9014627
:100FF0000098FFF7DBF8FFF71CFB29F81400641CCE
:10100000182CEFDB10482C61874201DDC5F800A0E9
:10101000084800F015FD0748483800F011FD054A62
:10102000182348320021A2F1A4000096FFF744FDE6
:10103000BDE8F88FE0000020000000209A999999FF
:101040009999B93F66660A400000A041044910B56D
:101050000A68024202D00860FFF786FF10BD000058
:10106000140401402DE9F84FDFF8C891002409F17C
:10107000040A0AF1040B23460F270BF1040ED1E0FA
:101080000125A54006EA0502AA4276D1DFF8A8C1EB
:101090004E68A6EB0C0866452BD00DDC032E34D031
:1010A00005DC36B3012E19D0022E2FD11BE0112EF4
:1010B00016D0122E2AD119E0B8F5881F19D006DCF7
:1010C000B8F5803F15D0B8F5801F1FD111E0B8F5F5
:1010D000001F0ED0B8F5041F18D10AE0CB6815E048
:1010E000CB681B1D12E0CB6808330FE0CB680C33D4
:1010F0000CE08B682BB1012B4FF0080303D0456146
:1011000004E0042302E0056100E00023FF2A01D887
:10111000064601E000F104064FEA840501D9A5F175
:101120002005D6F8008007FA05FC28EA0C0803FA27
:1011300005F548EA0508C6F800804D68ED0070D551
:101140003E4DAE6946F00106AE61AD6924F003067E
:1011500005F0010500953A4D06EB050CDCF808504A
:10116000A607360F07FA06F825EA0805DFF8D48047
:10117000404503D14FF0000825E052E0DFF8C88079
:10118000404502D14FF001081DE0DFF8C080404526
:1011900002D14FF0020816E0DFF8B480404502D1DA
:1011A0004FF003080FE0DFF8AC80404502D14FF06C
:1011B000040808E0DFF8A080404502D14FF00508A0
:1011C00001E04FF0060808FA06F848EA0508CCF8EE
:1011D00008804D68D9F80060ED034D4601D51643EF
:1011E00000E096432E604D68DAF80060AD03554686
:1011F00001D5164300E096432E604D68DBF8006091
:10120000ED025D4601D5164300E096432E604D6821
:10121000DEF80060AD02754601D5164300E0964346
:101220002E60641C0A681646E2407FF429AFBDE8D0
:10123000F88F00000004014000001110001002406F
:101240000000014000080140000C01400010014076
:101250000014014000180140001C01400148806852
:101260007047000074000020024881680278114431
:101270008160704774000020074810B5016841F094
:1012800010010160032000F075F8002000F006F85E
:1012900000F024F8002010BD0020024070B50D4D74
:1012A00004464FF47A712878B1FBF0F00A490968D6
:1012B000B1FBF0F000F0CCFA48B9102C07D20022B4
:1012C0002146501E00F036F800206C6070BD0120F1
:1012D00070BD000074000020800000200C4808B59C
:1012E000816941F001018161816901F00101009191
:1012F000C16941F08051C161C06900F08050009027
:101300000448416821F0E06141F00071416008BD8E
:101310000010024000000140002809DB00F01F021D
:10132000012191404009800000F1E020C0F8001147
:1013300070470000F0B40E4B1B680C46C3F3022349
:10134000C3F10705042D00D90425191D072901D271
:10135000002300E0DB1E012606FA05F1491E2140AC
:1013600099409E40761E16403143F0BC00F04EBEC0
:101370000CED00E0064900F0070208684FF6FF0395
:10138000184040EA0220034A1043086070470000FA
:101390000CED00E00000FA052DE9F0470F460500CE
:1013A00061D0434E306800F00700B84209D230687F
:1013B00020F0070038433060306800F00700B84282
:1013C00051D128683B4C810712D5400703D560688E
:1013D00040F4E06060602878000703D5606840F45E
:1013E000605060606068A96820F0F00008436060A9
:1013F0002878C00728D06868012810D02168022802
:1014000010D0890700292EDA616821F00301014319
:101410006160FFF723FF804641F288390DE02168C3
:101420008903EFE78901EDE7FFF718FFA0EB08015B
:10143000494502D90320BDE8F0876068696800F07B
:101440000C00B0EB810FEFD1306800F00700B8421C
:101450000BD9306820F0070038433060306800F066
:101460000700B84201D00120E5E72878400705D5FC
:101470006068E96820F4E06008436060287800074D
:1014800006D56068296920F4605040EAC1006060B8
:1014900000F018F86168084AC1F30311515CC840B4
:1014A0000649086006480068FFF7F8FE0020C2E71A
:1014B0000020024000100240C021000880000020EF
:1014C0007800002012A185B00FC98DE80F0014A08C
:1014D000144A006804905168134801F00C03042B6F
:1014E00010D0082B0ED1C1F38343C9031DF80300AC
:1014F0000AD5516804AAC1F34041515C0A4A5043DD
:10150000B0FBF1F005B0704708494843FAE7000026
:1015100002030405060708090A0B0C0D0E0F101034
:10152000010200000010024000127A0000093D0094
:101530002DE9F84F040070D02078C04DC00749D085
:101540006868C0F38100012807D06868C0F3810093
:10155000022809D16868C00306D52868800339D5F8
:1015600060680028E7D035E06068B0F5803F0BD0B8
:1015700010B1B0F5A02F11D0286820F48030286079
:10158000286820F4802002E0286840F48030286039
:10159000606890B1FFF762FE06460AE0286840F4F2
:1015A00080202860F0E700BFFFF758FE801B64280A
:1015B00073D828688003F7D50CE0FFF74FFE064686
:1015C00005E000BFFFF74AFE801B6428F0D82868BA
:1015D0008003F7D420789A4E80074FF001094FF02E
:1015E000000839D5686810F00C0F07D06868C0F3A0
:1015F0008100022809D16868C00306D428688007E2
:1016000014D52069012808D110E02069B0B1C6F8CE
:101610000090FFF723FE074605E00AE1FFF71EFEF4
:10162000C01B0228C4D828688007F7D528686169DC
:1016300020F0F80040EAC10028600DE0C6F8008004
:10164000FFF70CFE074604E0FFF708FEC01B022868
:1016500023D828688007F7D4207800072CD579484C
:10166000A169D9B1C0F80090FFF7F8FD074604E082
:10167000FFF7F4FDC01B02280FD8686A8007F7D572
:1016800071484FF4FA510068B0FBF1F0009000BFD0
:101690000098411E0091FAD20EE080E0C0F8008070
:1016A000FFF7DCFD074604E0FFF7D8FDC01B02286A
:1016B00075D8686A8007F7D42078400760D5E86954
:1016C0000027C00008D4E86940F08050E861E8696C
:1016D000012700F0805000905C480168C90513D4D0
:1016E0000168834641F480710160FFF7B7FD8246CF
:1016F00006E000BFFFF7B2FDA0EB0A0064284ED859
:10170000DBF80000C005F5D5E06801280AD008B173
:10171000052813D0286A20F001002862286A20F0EA
:10172000040002E0286A40F001002862E06841F20B
:10173000883B98B1FFF792FD82460BE0286A40F0A3
:1017400004002862EEE700BFFFF788FDA0EB0A0166
:1017500059455AD8286A8007F6D50CE0FFF77EFD78
:10176000824605E0FFF77AFDA0EB0A0159454CD807
:10177000286A8007F6D41FB1E86920F08050E8613C
:10178000E06988B36968C1F38101022944D0022865
:10179000C6F8608004D0FFF761FD044638E034E00D
:1017A000FFF75CFD074604E0FFF758FDC01B022869
:1017B0002BD828688001F7D4206AB0F5803F05D186
:1017C0006868A16820F4003008436860D4E9080123
:1017D0000843696821F4741108436860C6F8609092
:1017E000FFF73CFD044606E025E000BFFFF736FDAD
:1017F000001B022809D828688001F7D51BE000BF2C
:10180000FFF72CFD001B022802D90320BDE8F88F4A
:1018100028688001F4D40EE00128F7D06868226AB5
:1018200000F48031914204D1616A00F47010884262
:1018300001D00120EAE70020E8E7000000100240A4
:1018400000004242800442428000002000700040BC
:1018500010B5401EB0F1807F01D3012010BD4FF0C4
:10186000E02460610F21601700F0D0FB0020A06130
:1018700007202061002010BD7047704770B590F8B8
:101880003C20012A2CD0012480F83C40022280F820
:101890003D2003685A689D6822F070060A6832434A
:1018A0005A60104B02689A420ED00F4B9A420BD0EE
:1018B000B2F1804F08D00D4B9A4205D00C4B9A42A2
:1018C00002D00C4B9A4204D1496825F08003194399
:1018D000916080F83D40002180F83C10084670BDC2
:1018E000022070BD002C0140003401400004004083
:1018F00000080040000C004010B5040003D094F82C
:101900003D0010B107E0012010BD002084F83C002C
:10191000204600F01FF8022084F83D00211D2068B9
:1019200000F0F8FA012084F8460084F83E0084F8BC
:101930003F0084F8400084F8410084F8420084F8B5
:10194000430084F8440084F8450084F83D000020FA
:1019500010BD000038B5054600681C49B0F1804F45
:1019600014D01B4A904230D1C86940F00200C861CF
:10197000C869002200F00200009011461D20FFF708
:10198000D9FCBDE838401D20FFF7C6BCC86940F04F
:101990000100C861C869104C00F0010000900D48BA
:1019A0002060002080216060C4E9020149002161BB
:1019B000890061612021C4E906102046FFF75EFA24
:1019C00008B1FEF7B3FF2C62656238BD001002401B
:1019D000000400401C0002409C01002090F83D10D3
:1019E000012901D001207047022180F83D100068D4
:1019F0000E4988420ED00E4988420BD0B0F1804F7C
:101A000008D00C49884205D00B49884202D00B49C6
:101A1000884204D1816801F00701062903D00168DA
:101A200041F001010160002070470000002C0140DE
:101A3000003401400004004000080040000C004059
:101A400090F83D10012901D001207047022180F853
:101A50003D100168CA6842F00102CA6000680E4980
:101A600088420ED00D4988420BD0B0F1804F08D08B
:101A70000B49884205D00B49884202D00A49884266
:101A800004D1816801F00701062903D0016841F003
:101A90000101016000207047002C0140003401402A
:101AA0000004004000080040000C00400168CA68C3
:101AB00022F00102CA6001680A6A41F211131A4257
:101AC00007D10A6A9B101A4203D10A6822F0010268
:101AD0000A60012180F83D100020704770B504466F
:101AE00090F83C00012817D0012584F83C500220D2
:101AF00084F83D002068826822F0770222F47F4259
:101B000082600868502830D00DDC20284DD005DCDC
:101B100098B310283BD148E0022070BD302844D053
:101B2000402834D139E0602828D0702806D0B0F59C
:101B3000805F2CD0B0F5005F29D10AE0CB68D1E9F5
:101B40000121206800F02CFA2068816841F07701BB
:101B500009E0CB68D1E90121206800F021FA206872
:101B6000816841F48041816011E0CA684968206859
:101B700000F028FA5021206807E016E0CA6849689A
:101B8000206800F030FA6021206800F013FA84F831
:101B90003D50002084F83C0070BDCA684968206848
:101BA00000F010FA40212068EFE722680146104655
:101BB000EBE7704770B50446006801694FF0000517
:101BC000C943890715D4C168C943890711D4E91EDF
:101BD000016101202077206880698007204602D0BB
:101BE000FFF7E7FF04E000F098F8204600F096F8D1
:101BF000257720680169C943490717D4C168C943DB
:101C0000490713D46FF00401016102202077206896
:101C1000806910F4407F204602D0FFF7CAFF04E03D
:101C200000F07BF8204600F079F8257720680169FC
:101C3000C943090716D4C168C943090712D46FF014
:101C400008010161042020772068C06980072046D0
:101C500002D0FFF7AEFF04E000F05FF8204600F08E
:101C60005DF8257720680169C943C90617D4C168A2
:101C7000C943C90613D46FF0100101610820207711
:101C80002068C06910F4407F204602D0FFF791FF22
:101C900004E000F042F8204600F040F82577206884
:101CA0000169C943C90708D1C168C943C90704D13B
:101CB000891E0161204600F033F820680169C9439C
:101CC000090609D4C168C943090605D46FF080012B
:101CD00001612046FFF7D0FD20680169C94349062C
:101CE00009D4C168C943490605D46FF040010161B8
:101CF000204600F085F820680169C94389060BD4A5
:101D0000C168C943890607D46FF0200101612046EC
:101D1000BDE87040FFF7B1BD70BD7047704700006F
:101D2000F8B5324988425FD1314C0025E06801287E
:101D30000DD12E4800215C38FEF73AFF2B4A1823BC
:101D400048320021A2F1A4000095FEF7B5FE282636
:101D5000E068F70628281DDCC0EB003090FBF6F3A6
:101D60002248002210215C38FEF76AFEE068FEF788
:101D70004FFC02460B4600201E49FEF7BAFB00222C
:101D80001D4BFEF7B6FB00221C4BFEF73AFBFEF79D
:101D900064FCF862E06829281FDBC0F15000C0EB4A
:101DA000003090FBF6F31148002210215C38FEF75A
:101DB00047FEE068292810D140F63F30F8620B4812
:101DC00000215C38FEF7F4FE084A01234832002166
:101DD000A2F1A4000095FEF76FFEE068401CE060F1
:101DE000502801DD0120E060F8BD0000E000002087
:101DF000000000200094F140000038400000F03F57
:101E00007047FEE710B586B0002412480094019494
:101E10000294039404944FF080410594C0E90014A7
:101E200040F63F31C0E90241802104618161FFF742
:101E300063FD4FF48050009069460648FFF74EFE60
:101E40002020CDE9040404A90248FFF717FD06B0DD
:101E500010BD00009800002010B586B00024124884
:101E6000009401940294039404940E490594016033
:101E70004F21C0E9011440F28331C0E903148021ED
:101E80008161FFF739FD4FF48050009069460648A4
:101E9000FFF724FE049404A903480594FFF7EEFC21
:101EA00006B010BD00040040E0000020FEE77047CF
:101EB00070477047FFF7D8B930B58FB02821684612
:101EC000FEF769F914210AA8FEF765F90121080453
:101ED000CDE900100024029402250491CDE90750B9
:101EE0004FF4E01009906846FFF722FB0F20CDE980
:101EF0000A056802CDE90C4002210AA80E94FFF7FA
:101F00004BFA0FB030BD70470148FFF753BE0000D9
:101F1000E0000020F0B502681C4B1D4D1D4E1E4F09
:101F20001E4C4FF0804C984209D0A04207D060452B
:101F300005D0A84203D0B04201D0B84204D122F06B
:101F4000700E4A6842EA0E02984209D0A04207D0B9
:101F5000604505D0A84203D0B04201D0B84203D1B9
:101F600022F44075CA682A434D6922F080022A4350
:101F700002608A68C2620A688262984201D0A04206
:101F800001D10969016301214161F0BD002C0140CB
:101F90000004004000080040000C004000340140F4
:101FA00010B5846842EA032224F47F440A432243A2
:101FB000826010BD826822F070020A4342F007017D
:101FC0008160704710B5036A046A24F0010404625A
:101FD000846924F0F00444EA021423F00A020A435C
:101FE0008461026210BD10B5036A23F0100303621E
:101FF0008369046A23F4704343EA023224F0A003A5
:1020000043EA01118261016210BDFEE70907090E72
:10201000002804DB00F1E02080F80014704700F095
:102020000F0000F1E02080F8141D704702E008C89E
:10203000121F08C1002AFAD170477047002001E042
:1020400001C1121F002AFBD17047000086B0FFF7C4
:1020500013F9FFF731FF0026504C02960396A06952
:10206000354640F00400A061A069694600F0040014
:1020700004904FF400400090494801904948FEF711
:10208000F1FF002211462820FFF754F92820FFF71E
:1020900043F9606940F001006061606900F001008F
:1020A0000090606940F0020060616069002200F009
:1020B0000200009011460C20FFF73CF90C20FFF7BE
:1020C0002BF9002211463A20FFF734F93A20FFF7A6
:1020D00023F9364900953448019508600846FEF713
:1020E00053FC2420009002200190002269462F48D2
:1020F000FEF720FC0095102269462C480195FEF75A
:1021000019FCFFF77FFEFFF7A7FE294C2068FEF7BA
:10211000BDFA284A284BFEF77AF9721EFEF758FAE4
:102120004FF06632254BFEF7E4F90C22FEF750FA29
:10213000FEF7BFFA25618146A06004F114076068CC
:10214000FEF75DFADFF86480824608F1A40800BF5C
:1021500057F825104846FEF781F801465046FEF72D
:1021600025F8FEF766FA28F815006D1C182DEFDB30
:102170000E4825611430FFF731FC10210B48FEF7A3
:102180006CFC0A4A1823A432002108480096FEF786
:1021900093FC06485C30FFF753FCFEE7001002405A
:1021A000000021100008014000740040840000205D
:1021B000000000209A9999999999B93F66660A405A
:1021C00000000000000000000102030406070809E7
:1021D000F021000800000020840000002C200008EE
:1021E00074220008840000205C0500003C200008E8
:1021F0000000803FFF0700000E3E78420100000013
:1022000000000000000000006F81843E0000003FDD
:102210008104353F2DB25D3F3945773F0000803F57
:102220003945773F2DB25D3F8104353F0000003FC7
:102230006F81843E000000006F8184BE000000BFFB
:10224000810435BF2DB25DBF394577BF000080BF27
:10225000394577BF2DB25DBF810435BF000000BF97
:102260006F8184BE0100000010000000000000002B
:042270000024F40052
:0400000508000131BD
:00000001FF
