:020000040800F2
:10000000000001208D4E0008D14D0008DD4D000894
:10001000E34D0008E94D0008EF4D00080000000026
:10002000000000000000000000000000F54D000886
:10003000014E0008000000000D4E0008194E000897
:10004000D54E0008D54E0008D54E0008D54E000804
:10005000D54E0008D54E0008D54E0008D54E0008F4
:10006000D54E0008D54E0008D54E0008D54E0008E4
:10007000D54E0008D54E0008D54E0008D54E0008D4
:10008000D54E0008D54E0008D54E0008D54E0008C4
:10009000D54E0008D54E0008D54E0008D54E0008B4
:1000A000D54E0008D54E0008D54E0008D54E0008A4
:1000B000D54E0008D54E0008D54E0008D54E000894
:1000C000D54E0008D54E0008D54E0008D54E000884
:1000D000D54E0008D54E0008D54E0008D54E000874
:1000E000D54E0008D54E0008D54E0008D54E000864
:1000F000D54E0008D54E0008D54E0008D54E000854
:10010000D54E0008D54E0008D54E0008D54E000843
:10011000D54E0008D54E0008D54E0008D54E000833
:10012000D54E0008D54E0008D54E0008D54E000823
:1001300000000000000000000000000000000000BF
:1001400000000000000000000000000000000000AF
:10015000000000000000000000000000000000009F
:10016000000000000000000000000000000000008F
:10017000000000000000000000000000000000007F
:10018000000000000000000000000000000000006F
:10019000000000000000000000000000000000005F
:1001A000000000000000000000000000000000004F
:1001B000000000000000000000000000000000003F
:1001C000000000000000000000000000000000002F
:1001D000000000000000000000000000000000001F
:0401E0005FF8E0F1F3
:1001E80010B5054C237833B9044B13B10448AFF369
:1001F80000800123237010BD1800002000000000BB
:100208000C76000808B5034B1BB103490348AFF34C
:10021800008008BD000000001C0000200C760008CB
:10022800034613F8012B002AFBD1181A013870472E
:1002380081F0004102E000BF83F0004330B54FEA8F
:1002480041044FEA430594EA050F08BF90EA020FFC
:100258001FBF54EA000C55EA020C7FEA645C7FEA8F
:10026800655C00F0E2804FEA5454D4EB5555B8BFB2
:100278006D420CDD2C4480EA020281EA030382EA23
:10028800000083EA010180EA020281EA0303362DB5
:1002980088BF30BD11F0004F4FEA01314FF4801C88
:1002A8004CEA113102D0404261EB410113F0004F9A
:1002B8004FEA03334CEA133302D0524263EB430351
:1002C80094EA050F00F0A780A4F10104D5F1200EEF
:1002D8000DDB02FA0EFC22FA05F2801841F100014A
:1002E80003FA0EF2801843FA05F359410EE0A5F11E
:1002F80020050EF1200E012A03FA0EFC28BF4CF04F
:10030800020C43FA05F3C01851EBE37101F0004504
:1003180007D54FF0000EDCF1000C7EEB00006EEB11
:100328000101B1F5801F1BD3B1F5001F0CD349089B
:100338005FEA30004FEA3C0C04F101044FEA4452F2
:1003480012F5800F80F09A80BCF1004F08BF5FEA79
:10035800500C50F1000041EB045141EA050130BD59
:100368005FEA4C0C404141EB010111F4801FA4F1FC
:100378000104E9D191F0000F04BF01460020B1FA51
:1003880081F308BF2033A3F10B03B3F120020CDA89
:100398000C3208DD02F1140CC2F10C0201FA0CF067
:1003A80021FA02F10CE002F11402D8BFC2F1200CCC
:1003B80001FA02F120FA0CFCDCBF41EA0C01904082
:1003C800E41AA2BF01EB0451294330BD6FEA0404CB
:1003D8001F3C1CDA0C340EDC04F11404C4F12002B6
:1003E80020FA04F001FA02F340EA030021FA04F3C8
:1003F80045EA030130BDC4F10C04C4F1200220FA1F
:1004080002F001FA04F340EA0300294630BD21FA5C
:1004180004F0294630BD94F0000F83F4801306BF22
:1004280081F480110134013D4EE77FEA645C18BF16
:100438007FEA655C29D094EA050F08BF90EA020FAD
:1004480005D054EA000C04BF1946104630BD91EAA5
:10045800030F1EBF0021002030BD5FEA545C05D1A8
:100468004000494128BF41F0004130BD14F58004E7
:100478003CBF01F5801130BD01F0004545F0FE415B
:1004880041F470014FF0000030BD7FEA645C1ABF90
:10049800194610467FEA655C1CBF0B46024650EAC7
:1004A800013406BF52EA033591EA030F41F40021F3
:1004B80030BD00BF90F0000F04BF0021704730B579
:1004C8004FF4806404F132044FF000054FF000014E
:1004D80050E700BF90F0000F04BF0021704730B50F
:1004E8004FF4806404F1320410F0004548BF4042E4
:1004F8004FF000013EE700BF42004FEAE2014FEA39
:1005080031014FEA02701FBF12F07F4393F07F4F13
:1005180081F06051704732F07F4208BF704793F016
:100528007F4F04BF41F40021704730B54FF4607429
:1005380001F0004521F000411CE700BF50EA01022C
:1005480008BF704730B54FF000050AE050EA0102D5
:1005580008BF704730B511F0004502D5404261EB45
:1005680041014FF4806404F132045FEA915C3FF486
:10057800D8AE4FF003025FEADC0C18BF03325FEA23
:10058800DC0C18BF033202EBDC02C2F1200300FAD4
:1005980003FC20FA02F001FA03FE40EA0E0021FAF9
:1005A80002F11444BDE600BF70B54FF0FF0C4CF4E7
:1005B800E06C1CEA11541DBF1CEA135594EA0C0F99
:1005C80095EA0C0F00F0DEF82C4481EA030621EAD4
:1005D8004C5123EA4C5350EA013518BF52EA03350F
:1005E80041F4801143F4801338D0A0FB02CE4FF0C1
:1005F8000005E1FB02E506F00042E0FB03E54FF0F1
:100608000006E1FB03569CF0000F18BF4EF0010EE8
:10061800A4F1FF04B6F5007F64F5407404D25FEAE4
:100628004E0E6D4146EB060642EAC62141EA555197
:100638004FEAC52040EA5E504FEACE2EB4F1FD0CD9
:1006480088BFBCF5E06F1ED8BEF1004F08BF5FEA57
:10065800500E50F1000041EB045170BD06F0004609
:1006680046EA010140EA020081EA0301B4EB5C04B6
:10067800C2BFD4EB0C0541EA045170BD41F48011AE
:100688004FF0000E013C00F3AB8014F1360FDEBFD3
:10069800002001F0004170BDC4F10004203C35DAAF
:1006A8000C341BDC04F11404C4F1200500FA05F332
:1006B80020FA04F001FA05F240EA020001F00042D3
:1006C80021F0004110EBD37021FA04F642EB060149
:1006D8005EEA430E08BF20EAD37070BDC4F10C0473
:1006E800C4F1200500FA04F320FA05F001FA04F237
:1006F80040EA020001F0004110EBD37041F1000123
:100708005EEA430E08BF20EAD37070BDC4F120052D
:1007180000FA05F24EEA020E20FA04F301FA05F295
:1007280043EA020321FA04F001F0004121FA04F23D
:1007380020EA020000EBD3705EEA430E08BF20EA0D
:10074800D37070BD94F0000F0FD101F00046400047
:1007580041EB010111F4801F08BF013CF7D041EAC9
:10076800060195F0000F18BF704703F000465200CD
:1007780043EB030313F4801F08BF013DF7D043EA9E
:100788000603704794EA0C0F0CEA135518BF95EA54
:100798000C0F0CD050EA410618BF52EA4306D1D1DB
:1007A80081EA030101F000414FF0000070BD50EAFA
:1007B800410606BF1046194652EA430619D094EA84
:1007C8000C0F02D150EA013613D195EA0C0F05D16E
:1007D80052EA03361CBF104619460AD181EA0301C2
:1007E80001F0004141F0FE4141F470014FF000007A
:1007F80070BD41F0FE4141F4780170BD70B54FF015
:10080800FF0C4CF4E06C1CEA11541DBF1CEA135594
:1008180094EA0C0F95EA0C0F00F0A7F8A4EB050476
:1008280081EA030E52EA03354FEA013100F088806D
:100838004FEA03334FF0805545EA131343EA126336
:100848004FEA022245EA111545EA10654FEA0026EB
:100858000EF000419D4208BF964244F1FD0404F5A4
:10086800407402D25B084FEA3202B61A65EB030500
:100878005B084FEA32024FF480104FF4002CB6EBBD
:10088800020E75EB030E22BFB61A754640EA0C003D
:100898005B084FEA3202B6EB020E75EB030E22BF7D
:1008A800B61A754640EA5C005B084FEA3202B6EBBE
:1008B800020E75EB030E22BFB61A754640EA9C007D
:1008C8005B084FEA3202B6EB020E75EB030E22BF4D
:1008D800B61A754640EADC0055EA060E18D04FEA0B
:1008E800051545EA16754FEA06164FEAC30343EAAB
:1008F80052734FEAC2025FEA1C1CC0D111F4801F78
:100908000BD141EA00014FF000004FF0004CB6E770
:1009180011F4801F04BF01430020B4F1FD0C88BF0F
:10092800BCF5E06F3FF6AFAEB5EB030C04BFB6EB1A
:10093800020C5FEA500C50F1000041EB045170BD0D
:100948000EF0004E4EEA113114EB5C04C2BFD4EB3A
:100958000C0541EA045170BD41F480114FF0000EBE
:10096800013C90E645EA060E8DE60CEA135594EA3A
:100978000C0F08BF95EA0C0F3FF43BAF94EA0C0F3D
:100988000AD150EA01347FF434AF95EA0C0F7FF4B2
:1009980025AF104619462CE795EA0C0F06D152EA06
:1009A80003353FF4FDAE1046194622E750EA4106EA
:1009B80018BF52EA43067FF4C5AE50EA41047FF4FB
:1009C8000DAF52EA43057FF4EBAE12E74A0011D2AD
:1009D80012F5001211D20DD56FF47873B3EB625291
:1009E8000ED44FEAC12343F0004343EA505323FA9D
:1009F80002F070474FF00000704750EA013002D112
:100A08004FF0FF3070474FF0000070474FEA410247
:100A1800B2F1E04324BFB3F5001CDCF1FE5C0DD954
:100A280001F0004C4FEAC0024CEA5070B2F1004F9E
:100A380040EB830008BF20F00100704711F0804FA1
:100A480021D113F13872BCBF01F00040704741F466
:100A580080114FEA5252C2F11802C2F1200C10FA6A
:100A68000CF320FA02F018BF40F001004FEAC1234E
:100A78004FEAD32303FA0CFC40EA0C0023FA02F3F2
:100A88004FEA4303CCE77FEA625307D150EA0133C8
:100A98001EBF4FF0FE4040F44000704701F0004098
:100AA80040F0FE4040F40000704700BF80F0004076
:100AB80002E000BF81F0004142001FBF5FEA41032E
:100AC80092EA030F7FEA226C7FEA236C6AD04FEA2E
:100AD8001262D2EB1363C1BFD21841404840414073
:100AE800B8BF5B42192B88BF704710F0004F40F425
:100AF800000020F07F4018BF404211F0004F41F441
:100B0800000121F07F4118BF494292EA030F3FD00C
:100B1800A2F1010241FA03FC10EB0C00C3F120031F
:100B280001FA03F100F0004302D5494260EB4000AE
:100B3800B0F5000F13D3B0F1807F06D340084FEA19
:100B4800310102F10102FE2A51D2B1F1004F40EB0E
:100B5800C25008BF20F0010040EA03007047490076
:100B680040EB000010F4000FA2F10102EDD1B0FA41
:100B780080FCACF1080CB2EB0C0200FA0CF0AABF36
:100B880000EBC25052421843BCBFD04018437047D4
:100B980092F0000F81F4000106BF80F400000132DA
:100BA800013BB5E74FEA41037FEA226C18BF7FEAB1
:100BB800236C21D092EA030F04D092F0000F08BFF3
:100BC8000846704790EA010F1CBF0020704712F0DA
:100BD8007F4F04D1400028BF40F00040704712F119
:100BE80000723CBF00F50000704700F0004343F07E
:100BF800FE4040F4000070477FEA226216BF0846B4
:100C08007FEA23630146420206BF5FEA412390EA76
:100C1800010F40F4800070474FF0000304E000BF6C
:100C280010F0004348BF40425FEA000C08BF70471D
:100C380043F0964301464FF000001CE050EA0102E1
:100C480008BF70474FF000030AE000BF50EA0102F6
:100C580008BF704711F0004302D5404261EB4101E3
:100C68005FEA010C02BF84460146002043F0B64308
:100C780008BFA3F18053A3F50003BCFA8CF2083A2D
:100C8800A3EBC25310DB01FA02FC634400FA02FC36
:100C9800C2F12002BCF1004F20FA02F243EB02003D
:100CA80008BF20F00100704702F1200201FA02FC9F
:100CB800C2F1200250EA4C0021FA02F243EB020092
:100CC80008BF20EADC7070474FF0FF0C1CEAD052D6
:100CD8001EBF1CEAD15392EA0C0F93EA0C0F6FD097
:100CE8001A4480EA010C400218BF5FEA41211ED075
:100CF8004FF0006343EA501043EA5111A0FB013161
:100D08000CF00040B1F5000F3EBF490041EAD37135
:100D18005B0040EA010062F17F02FD2A1DD8B3F1B1
:100D2800004F40EBC25008BF20F00100704790F020
:100D3800000F0CF0004C08BF49024CEA502040EA72
:100D480051207F3AC2BFD2F1FF0340EAC250704738
:100D580040F400004FF00003013A5DDC12F1190F76
:100D6800DCBF00F000407047C2F10002410021FAE8
:100D780002F1C2F1200200FA02FC5FEA310040F100
:100D8800000053EA4C0308BF20EADC70704792F079
:100D9800000F00F0004C02BF400010F4000F013AB1
:100DA800F9D040EA0C0093F0000F01F0004C02BFAC
:100DB800490011F4000F013BF9D041EA0C018FE71B
:100DC8000CEAD15392EA0C0F18BF93EA0C0F0AD021
:100DD80030F0004C18BF31F0004CD8D180EA010047
:100DE80000F00040704790F0000F17BF90F0004FE0
:100DF800084691F0000F91F0004F14D092EA0C0FC2
:100E080001D142020FD193EA0C0F03D14B0218BF54
:100E1800084608D180EA010000F0004040F0FE409A
:100E280040F40000704740F0FE4040F44000704736
:100E38004FF0FF0C1CEAD0521EBF1CEAD15392EAB5
:100E48000C0F93EA0C0F69D0A2EB030280EA010CA5
:100E580049024FEA402037D04FF0805343EA11113E
:100E680043EA10130CF000408B4238BF5B0042F19C
:100E78007D024FF4000C8B4224BF5B1A40EA0C0041
:100E8800B3EB510F24BFA3EB510340EA5C00B3EB73
:100E9800910F24BFA3EB910340EA9C00B3EBD10F61
:100EA80024BFA3EBD10340EADC001B0118BF5FEAB3
:100EB8001C1CE0D1FD2A3FF650AF8B4240EBC250DC
:100EC80008BF20F0010070470CF0004C4CEA50209D
:100ED8007F32C2BFD2F1FF0340EAC250704740F4EC
:100EE80000004FF00003013A37E792F0000F00F0DE
:100EF800004C02BF400010F4000F013AF9D040EA5C
:100F08000C0093F0000F01F0004C02BF490011F4EF
:100F1800000F013BF9D041EA0C0195E70CEAD153E7
:100F280092EA0C0F08D142027FF47DAF93EA0C0FCE
:100F38007FF470AF084676E793EA0C0F04D14B02B2
:100F48003FF44CAF08466EE730F0004C18BF31F064
:100F5800004CCAD130F000427FF45CAF31F000435E
:100F68007FF43CAF5FE700BF42000ED2B2F1FE4F04
:100F78000BD34FF09E03B3EB126209D44FEA002360
:100F880043F0004323FA02F070474FF00000704727
:100F980012F1610F01D1420202D14FF0FF307047C8
:100FA8004FF00000704700BF80B483B000AF034625
:100FB800FB80044BFA8892B21A8000BF0C37BD46FA
:100FC80080BC7047FE07006C80B483B000AF034656
:100FD800FB80044BFA8892B25A8000BF0C37BD469A
:100FE80080BC7047FE07006C80B483B000AF054B2F
:100FF8005B889BB2FB80FB889BB218460C37BD46CA
:1010080080BC7047FE07006C80B483B000AF034615
:101018000A46FB801346BB80054AFB881380044AB6
:10102800BB88538000BF0C37BD4680BC704700BFEB
:10103800FE07006C80B400AF034B044A12891A8083
:1010480000BFBD4680BC7047FE07006C80000020D2
:1010580080B582B000AF03460A46FB801346BB80CA
:101068006B4B9B8849F24132934205D0684B9B8871
:1010780045F21032934222D1654B5B891846FFF73F
:1010880093FFFB881B0A9BB21846FFF79DFFFB885E
:10109800DBB29BB21846FFF797FF5D4B9B8918465A
:1010A800FFF782FFBB881B0A9BB21846FFF78CFF2D
:1010B800BB88DBB29BB21846FFF786FFA3E0544B10
:1010C8009B8841F66312934267D1514B9B79002B61
:1010D8001ED14F4B1A88FB88D31A9BB2013BFB8069
:1010E8004B4B5B891846FFF75FFF0020FFF76CFF4B
:1010F8000020FFF769FFFB881B0A9BB21846FFF721
:1011080063FFFB88DBB29BB21846FFF75DFF21E067
:101118003F4B5B891846FFF747FFFB881B0A9BB2CA
:101128001846FFF751FFFB88DBB29BB21846FFF762
:101138004BFF374B1B88013B1B129BB21846FFF72E
:1011480043FF334B1B88013B9BB2DBB29BB2184673
:10115800FFF73AFF2E4B9B891846FFF725FFBB8800
:101168001B0A9BB21846FFF72FFFBB88DBB29BB266
:101178001846FFF729FF264B5B88013B1B129BB2E1
:101188001846FFF721FF224B5B88013B9BB2DBB27D
:101198009BB21846FFF718FF35E01D4B9B8845F2B8
:1011A800105293422FD11A4B5B891846FFF7FCFE69
:1011B800FB881B0A9BB21846FFF706FF144B5B8996
:1011C80001339BB21846FFF7EFFEFB88DBB29BB2F8
:1011D8001846FFF7F9FE0E4B9B891846FFF7E4FE09
:1011E800BB881B0A9BB21846FFF7EEFE084B9B898B
:1011F80001339BB21846FFF7D7FEBB88DBB29BB220
:101208001846FFF7E1FE00BF0837BD4680BD00BFA6
:101218008000002080B584B000AF0346FB71002336
:10122800FB810023BB81A94B9B79012B05D1A74BDF
:101238009B8841F66312934209D1A44B9B79002BFA
:1012480034D1A24B9B8841F6631293422ED1FB798D
:10125800072B2BD801A252F823F000BF85120008F3
:101268008B12000891120008971200089D120008BE
:10127800A3120008A9120008AF1200080623FB7188
:1012880014E00723FB7111E00423FB710EE0052332
:10129800FB710BE00123FB7108E00023FB7105E003
:1012A8000323FB7102E00223FB7100BF874B9B887D
:1012B80049F24132934212D0844B9B8845F2103256
:1012C80093420CD0814B9B8845F21052934206D032
:1012D8007E4B9B8841F66312934240F03181FB7943
:1012E800072B36D801A252F823F000BF5B13000881
:1012F800151300081F1300082913000833130008EA
:101308003D1300084713000851130008FB8943F0F8
:101318008003FB811DE0FB8943F04003FB8118E05B
:10132800FB8943F0C003FB8113E0FB8943F02003F2
:10133800FB810EE0FB8943F06003FB8109E0FB8938
:1013480043F0A003FB8104E0FB8943F0E003FB8149
:1013580000BF5E4B9B8845F21052934203D14FF475
:101368005853BB8101E03623BB81584B9B8845F21B
:10137800103293420FD0554B9B8845F2105293423E
:1013880009D0524B9B8841F66312934203D0FB89E4
:1013980043F00803FB81FA89BB8911461846FFF719
:1013A80033FE4A4B9B8841F66312934225D0FB8952
:1013B80003F02003002B10D0444B1A88434B5B8862
:1013C8009A421AD2414B1B887B81404B5A883F4B2B
:1013D8001A803E4A7B8953800FE03C4B1A883B4B6E
:1013E8005B889A4209D9394B1B887B81374B5A88CD
:1013F800364B1A80354A7B895380344B9B8845F29B
:101408001052934264D1314B5B891846FFF7CCFDEB
:101418000020FFF7D9FD2D4B5B8901339BB218469D
:10142800FFF7C2FD0020FFF7CFFD284B5B89023391
:101438009BB21846FFF7B8FD244B1B88013B1B12D3
:101448009BB21846FFF7C0FD204B5B8903339BB264
:101458001846FFF7A9FD1D4B1B88013B9BB2DBB269
:101468009BB21846FFF7B0FD184B9B891846FFF74B
:101478009BFD0020FFF7A8FD144B9B8901339BB20D
:101488001846FFF791FD0020FFF79EFD0F4B9B8943
:1014980002339BB21846FFF787FD0C4B5B88013B74
:1014A8001B129BB21846FFF78FFD084B9B8903332D
:1014B8009BB21846FFF778FD044B5B88013B9BB253
:1014C800DBB29BB21846FFF77FFD39E080000020B1
:1014D8001D4B5B891846FFF767FD0020FFF774FD79
:1014E8000020FFF771FD184B1B88013B1B129BB2B4
:1014F8001846FFF769FD144B1B88013B9BB2DBB212
:101508009BB21846FFF760FD0F4B9B891846FFF703
:101518004BFD0020FFF758FD0020FFF755FD0A4B53
:101528005B88013B1B129BB21846FFF74DFD064B2B
:101538005B88013B9BB2DBB29BB21846FFF744FDC8
:1015480000BF1037BD4680BD8000002080B582B046
:1015580000AF03463A60FB800B46BB805E4B9B881E
:1015680049F24132934205D05B4B9B8845F21032D9
:10157800934222D1584B5B891846FFF715FDFB882B
:101588001B0A9BB21846FFF71FFDFB88DBB29BB214
:101598001846FFF719FD504B9B891846FFF704FDC5
:1015A800BB881B0A9BB21846FFF70EFDBB88DBB24F
:1015B8009BB21846FFF708FD81E0474B9B8845F230
:1015C8001052934230D1444B5B891846FFF7ECFC2C
:1015D800FB881B0A9BB21846FFF7F6FC3E4B5B895B
:1015E80001339BB21846FFF7DFFCFB88DBB29BB2E6
:1015F8001846FFF7E9FC384B9B891846FFF7D4FCDF
:10160800BB881B0A9BB21846FFF7DEFC324B9B894E
:1016180001339BB21846FFF7C7FCBB88DBB29BB20D
:101628001846FFF7D1FC4AE02B4B9B8841F6631222
:10163800934244D1284B9B79002B06D1264B1A881C
:10164800FB88D31A9BB2013BFB80234B5B8918466E
:10165800FFF7AAFCFB881B0A9BB21846FFF7B4FCED
:10166800FB88DBB29BB21846FFF7AEFCFB881B0A6F
:101678009BB21846FFF7A8FCFB88DBB29BB2184662
:10168800FFF7A2FC144B9B891846FFF78DFCBB881B
:101698001B0A9BB21846FFF797FCBB88DBB29BB2CC
:1016A8001846FFF791FCBB881B0A9BB21846FFF748
:1016B8008BFCBB88DBB29BB21846FFF785FC074B57
:1016C800054A12891A80054B3A6892B25A8000BFBF
:1016D8000837BD4680BD00BF80000020FE07006CB3
:1016E80090B583B000AF0346FB71BE20FFF75CFCEA
:1016F8000520FFF769FCFB791846FEF7EBFE10A3FF
:10170800D3E90023FEF750FF03460C46184621464E
:10171800FFF75CF903469BB21846FFF755FC01201A
:10172800FFF752FCFF20FFF74FFC0020FFF74CFCAF
:101738000020FFF749FC00BF0C37BD4690BD00BF35
:10174800666666666666044080B582B000AF03468A
:10175800FB71644AFB799371FB79002B5ED1614B75
:10176800F0221A805F4B4FF4A0725A805D4B9B8821
:1017780049F24132934205D05A4B9B8845F21032C8
:10178800934218D1574B2C221A81564B2A225A8140
:10179800544B2B229A81534B9B8845F2103293422B
:1017A80040F099804F4B4FF4A0721A804D4B4FF484
:1017B800F0725A808FE04B4B9B8845F2105293424F
:1017C80014D1484B4FF430521A81464B4FF42852EB
:1017D8005A81444B4FF42C529A81424B4FF4F07289
:1017E8001A80404B4FF448725A8074E03D4B9B88F6
:1017F80041F6631293426ED13A4B2C221A81394B2F
:101808002B225A81374B2A229A81364B4FF4F07299
:101818001A80344B4FF448725A805CE0314B4FF4D5
:10182800A0721A802F4BF0225A802E4B9B8849F2C7
:101838004132934205D02B4B9B8845F2103293429C
:1018480009D1284B2C221A81264B2A225A81254B52
:101858002B229A8131E0234B9B8845F21052934208
:1018680014D1204B4FF430521A811E4B4FF428529A
:101878005A811C4B4FF42C529A811A4B4FF44872E0
:101888001A80184B4FF4F0725A8016E0154B9B885B
:1018980041F66312934210D1124B2C221A81114B3C
:1018A8002A225A810F4B2B229A810E4B4FF44872F1
:1018B8001A800C4B4FF4F0725A800A4B9B8845F201
:1018C8001032934207D1074B4FF4F0721A80054B40
:1018D8004FF4A0725A800020FFF79CFC00BF083725
:1018E800BD4680BD8000002080B500AFD320FFF743
:1018F8005BFBFFF779FB03461A465C4B9A80FFF7C0
:1019080073FB03461A46594B9A80FFF76DFB034653
:101918001A46564B9A80554B9B881B029AB2534BDA
:101928009A80FFF761FB03461A46504B9B88134386
:101938009AB24E4B9A804D4B9B8849F24132934262
:1019480000F08B80D420FFF72FFBFFF74DFB0346F9
:101958001A46464B9A80FFF747FB03461A46434B05
:101968009A80FFF741FB03461A46404B9A803F4B4B
:101978009B881B029AB23D4B9A80FFF735FB0346C2
:101988001A463A4B9B8813439AB2384B9A80374B86
:101998009B8845F2103293425FD04FF45A40FFF7CC
:1019A80003FBFFF721FB03461A46304B9A804FF49E
:1019B8005B40FFF7F9FAFFF717FB03461A462B4B74
:1019C8009A802A4B9B881B029AB2284B9A804FF424
:1019D8005C40FFF7E9FAFFF707FB03461A46234B7B
:1019E8009B8813439AB2214B9A80204B9B88B3F56E
:1019F800004F03D11D4B45F210529A801B4B9B8818
:101A080045F21052934228D0A120FFF7CDFAFFF7F4
:101A1800EBFA03461A46154B9A80FFF7E5FA034698
:101A28001A46124B9A80114B9B881B029AB20F4B95
:101A38009A80FFF7D9FA03461A460C4B9B88134342
:101A48009AB20A4B9A80094B9B8845F2617293427D
:101A580003D1064B41F663129A80044B9B8849F2E6
:101A68004132934240F01A8102E000BF800000201A
:101A7800CF20FFF799FA0020FFF7A6FAC120FFF759
:101A8800A3FA3020FFF7A0FAED20FFF78DFA6420C3
:101A9800FFF79AFA0320FFF797FA1220FFF794FA54
:101AA8008120FFF791FAE820FFF77EFA8520FFF7FB
:101AB8008BFA1020FFF788FA7A20FFF785FACB20F7
:101AC800FFF772FA3920FFF77FFA2C20FFF77CFA2C
:101AD8000020FFF779FA3420FFF776FA0220FFF7A3
:101AE80073FAF720FFF760FA2020FFF76DFAEA2073
:101AF800FFF75AFA0020FFF767FA0020FFF764FAA9
:101B0800C020FFF751FA1B20FFF75EFAC120FFF74C
:101B18004BFA0120FFF758FAC520FFF745FA3020A5
:101B2800FFF752FA3020FFF74FFAC720FFF73CFAC9
:101B3800B720FFF749FA3620FFF736FA4820FFF7B3
:101B480043FA3A20FFF730FA5520FFF73DFAB12063
:101B5800FFF72AFA0020FFF737FA1A20FFF734FABE
:101B6800B620FFF721FA0A20FFF72EFAA220FFF786
:101B78002BFAF220FFF718FA0020FFF725FA2620A3
:101B8800FFF712FA0120FFF71FFAE020FFF70CFA1F
:101B98000F20FFF719FA2A20FFF716FA2820FFF777
:101BA80013FA0820FFF710FA0E20FFF70DFA0820A5
:101BB800FFF70AFA5420FFF707FAA920FFF704FAFB
:101BC8004320FFF701FA0A20FFF7FEF90F20FFF77D
:101BD800FBF90020FFF7F8F90020FFF7F5F90020DE
:101BE800FFF7F2F90020FFF7EFF9E120FFF7DCF942
:101BF8000020FFF7E9F91520FFF7E6F91720FFF7AE
:101C0800E3F90720FFF7E0F91120FFF7DDF90620D7
:101C1800FFF7DAF92B20FFF7D7F95620FFF7D4F9A9
:101C28003C20FFF7D1F90520FFF7CEF91020FFF788
:101C3800CBF90F20FFF7C8F93F20FFF7C5F93F2080
:101C4800FFF7C2F90F20FFF7BFF92B20FFF7ACF918
:101C58000020FFF7B9F90020FFF7B6F90120FFF7D8
:101C6800B3F93F20FFF7B0F92A20FFF79DF90020CC
:101C7800FFF7AAF90020FFF7A7F90020FFF7A4F95A
:101C8800EF20FFF7A1F91120FFF78EF9782003F074
:101C980081F92920FFF788F901F0C7BF034B9B881A
:101CA80045F21032934240F07C8701E0800000202A
:101CB800ED20FFF779F90120FFF786F9FE20FFF7FD
:101CC80083F9EE20FFF770F9DE20FFF77DF9212078
:101CD800FFF77AF9F120FFF767F90120FFF774F9A8
:101CE800DF20FFF761F91020FFF76EF9C420FFF736
:101CF8005BF98F20FFF768F9C620FFF755F9002038
:101D0800FFF762F9E220FFF75FF9E220FFF75CF9DD
:101D1800E220FFF759F9BF20FFF746F9AA20FFF79D
:101D280053F9B020FFF740F90D20FFF74DF90020D7
:101D3800FFF74AF90D20FFF747F90020FFF744F9AC
:101D48001120FFF741F90020FFF73EF91920FFF7AE
:101D58003BF90020FFF738F92120FFF735F900207B
:101D6800FFF732F92D20FFF72FF90020FFF72CF9A4
:101D78003D20FFF729F90020FFF726F95D20FFF73E
:101D880023F90020FFF720F95D20FFF71DF9002057
:101D9800FFF71AF9B120FFF707F98020FFF714F9C8
:101DA8000020FFF711F98B20FFF70EF90020FFF74D
:101DB8000BF99620FFF708F90020FFF705F9B22084
:101DC800FFF7F2F80020FFF7FFF80020FFF7FCF814
:101DD8000220FFF7F9F80020FFF7F6F80320FFF7D5
:101DE800F3F80020FFF7F0F8B320FFF7DDF8002044
:101DF800FFF7EAF80020FFF7E7F80020FFF7E4F81C
:101E08000020FFF7E1F80020FFF7DEF80020FFF7D9
:101E1800DBF80020FFF7D8F80020FFF7D5F80020FE
:101E2800FFF7D2F80020FFF7CFF80020FFF7CCF833
:101E38000020FFF7C9F80020FFF7C6F80020FFF7D9
:101E4800C3F80020FFF7C0F80020FFF7BDF8002016
:101E5800FFF7BAF80020FFF7B7F80020FFF7B4F84B
:101E68000020FFF7B1F80020FFF7AEF80020FFF7D9
:101E7800ABF80020FFF7A8F80020FFF7A5F8B4207A
:101E8800FFF792F88B20FFF79FF80020FFF79CF8E8
:101E98009620FFF799F80020FFF796F8A120FFF7A2
:101EA80093F80020FFF790F8B520FFF77DF802209F
:101EB800FFF78AF80020FFF787F80320FFF784F878
:101EC8000020FFF781F80420FFF77EF80020FFF7D5
:101ED8007BF8B620FFF768F80020FFF775F80020B8
:101EE800FFF772F8B720FFF75FF80020FFF76CF8EC
:101EF8000020FFF769F83F20FFF766F80020FFF79A
:101F080063F85E20FFF760F80020FFF75DF86420B3
:101F1800FFF75AF80020FFF757F88C20FFF754F81E
:101F28000020FFF751F8AC20FFF74EF80020FFF72C
:101F38004BF8DC20FFF748F80020FFF745F8702041
:101F4800FFF742F80020FFF73FF89020FFF73CF832
:101F58000020FFF739F8EB20FFF736F80020FFF7ED
:101F680033F8DC20FFF730F80020FFF72DF8B82011
:101F7800FFF71AF80020FFF727F80020FFF724F8EA
:101F88000020FFF721F80020FFF71EF80020FFF7D8
:101F98001BF80020FFF718F80020FFF715F80020BD
:101FA800FFF712F8BA20FEF7FFFF2420FFF70CF81E
:101FB8000020FFF709F80020FFF706F80020FFF7D8
:101FC80003F8C120FEF7F0FF2020FEF7FDFF0020F8
:101FD800FEF7FAFF5420FEF7F7FF0020FEF7F4FFA4
:101FE800FF20FEF7F1FF0020FEF7EEFFC220FEF70C
:101FF800DBFF0A20FEF7E8FF0020FEF7E5FF0420DC
:10200800FEF7E2FF0020FEF7DFFFC320FEF7CCFF5C
:102018003C20FEF7D9FF0020FEF7D6FF3A20FEF756
:10202800D3FF0020FEF7D0FF3920FEF7CDFF0020B8
:10203800FEF7CAFF3720FEF7C7FF0020FEF7C4FFF0
:102048003C20FEF7C1FF0020FEF7BEFF3620FEF75A
:10205800BBFF0020FEF7B8FF3220FEF7B5FF0020D7
:10206800FEF7B2FF2F20FEF7AFFF0020FEF7ACFF10
:102078002C20FEF7A9FF0020FEF7A6FF2920FEF777
:10208800A3FF0020FEF7A0FF2620FEF79DFF0020FB
:10209800FEF79AFF2420FEF797FF0020FEF794FF33
:1020A8002420FEF791FF0020FEF78EFF2320FEF785
:1020B8008BFF0020FEF788FF3C20FEF785FF0020FD
:1020C800FEF782FF3620FEF77FFF0020FEF77CFF39
:1020D8003220FEF779FF0020FEF776FF2F20FEF76B
:1020E80073FF0020FEF770FF2C20FEF76DFF002025
:1020F800FEF76AFF2920FEF767FF0020FEF764FF5E
:102108002620FEF761FF0020FEF75EFF2420FEF781
:102118005BFF0020FEF758FF2420FEF755FF002044
:10212800FEF752FF2320FEF74FFF0020FEF74CFF7B
:10213800C420FEF739FF6220FEF746FF0020FEF7B5
:1021480043FF0520FEF740FF0020FEF73DFF8420F7
:10215800FEF73AFF0020FEF737FFF020FEF734FFC6
:102168000020FEF731FF1820FEF72EFF0020FEF7B3
:102178002BFFA420FEF728FF0020FEF725FF1820DC
:10218800FEF722FF0020FEF71FFF5020FEF71CFF7E
:102198000020FEF719FF0C20FEF716FF0020FEF7BF
:1021A80013FF1720FEF710FF0020FEF70DFF952004
:1021B800FEF70AFF0020FEF707FFF320FEF704FFF3
:1021C8000020FEF701FFE620FEF7FEFE0020FEF7E6
:1021D800FBFEC520FEF7E8FE3220FEF7F5FE0020E4
:1021E800FEF7F2FE4420FEF7EFFE0020FEF7ECFEBD
:1021F8006520FEF7E9FE0020FEF7E6FE7620FEF7F2
:10220800E3FE0020FEF7E0FE8820FEF7DDFE00205A
:10221800FEF7DAFEC620FEF7C7FE2020FEF7D4FE42
:102228000020FEF7D1FE1720FEF7CEFE0020FEF7B5
:10223800CBFE0120FEF7C8FE0020FEF7C5FEC72032
:10224800FEF7B2FE0020FEF7BFFE0020FEF7BCFE40
:102258000020FEF7B9FE0020FEF7B6FEC820FEF704
:10226800A3FE0020FEF7B0FE0020FEF7ADFE002022
:10227800FEF7AAFE0020FEF7A7FEC920FEF794FE8F
:102288000020FEF7A1FE0020FEF79EFE0020FEF7CC
:102298009BFE0020FEF798FE0020FEF795FE00202A
:1022A800FEF792FE0020FEF78FFE0020FEF78CFE60
:1022B8000020FEF789FE0020FEF786FE0020FEF7CC
:1022C80083FE0020FEF780FE0020FEF77DFE002042
:1022D800FEF77AFE0020FEF777FE0020FEF774FE78
:1022E800E020FEF761FE1620FEF76EFE0020FEF7E6
:1022F8006BFE1C20FEF768FE0020FEF765FE21201D
:10230800FEF762FE0020FEF75FFE3620FEF75CFE59
:102318000020FEF759FE4620FEF756FE0020FEF785
:1023280053FE5220FEF750FE0020FEF74DFE6420BB
:10233800FEF74AFE0020FEF747FE7A20FEF744FE2D
:102348000020FEF741FE8B20FEF73EFE0020FEF740
:102358003BFE9920FEF738FE0020FEF735FEA82048
:10236800FEF732FE0020FEF72FFEB920FEF72CFE06
:102378000020FEF729FEC420FEF726FE0020FEF707
:1023880023FECA20FEF720FE0020FEF71DFED22005
:10239800FEF71AFE0020FEF717FED920FEF714FEFE
:1023A8000020FEF711FEE020FEF70EFE0020FEF7EB
:1023B8000BFEF320FEF708FE0020FEF705FEE120E5
:1023C800FEF7F2FD1620FEF7FFFD0020FEF7FCFDEC
:1023D8001C20FEF7F9FD0020FEF7F6FD2220FEF78F
:1023E800F3FD0020FEF7F0FD3620FEF7EDFD00209E
:1023F800FEF7EAFD4520FEF7E7FD0020FEF7E4FDC5
:102408005220FEF7E1FD0020FEF7DEFD6420FEF716
:10241800DBFD0020FEF7D8FD7A20FEF7D5FD002071
:10242800FEF7D2FD8B20FEF7CFFD0020FEF7CCFD96
:102438009920FEF7C9FD0020FEF7C6FDA820FEF78B
:10244800C3FD0020FEF7C0FDB920FEF7BDFD00204A
:10245800FEF7BAFDC420FEF7B7FD0020FEF7B4FD75
:10246800CA20FEF7B1FD0020FEF7AEFDD220FEF730
:10247800ABFD0020FEF7A8FDD820FEF7A5FD002043
:10248800FEF7A2FDE020FEF79FFD0020FEF79CFD71
:10249800F320FEF799FD0020FEF796FDE220FEF7F7
:1024A80083FD0520FEF790FD0020FEF78DFD0B2033
:1024B800FEF78AFD0020FEF787FD1B20FEF784FD4E
:1024C8000020FEF781FD3420FEF77EFD0020FEF798
:1024D8007BFD4420FEF778FD0020FEF775FD4F20B8
:1024E800FEF772FD0020FEF76FFD6120FEF76CFD20
:1024F8000020FEF769FD7920FEF766FD0020FEF753
:1025080063FD8820FEF760FD0020FEF75DFD972043
:10251800FEF75AFD0020FEF757FDA620FEF754FDF2
:102528000020FEF751FDB720FEF74EFD0020FEF714
:102538004BFDC220FEF748FD0020FEF745FDC720F1
:10254800FEF742FD0020FEF73FFDD120FEF73CFDDF
:102558000020FEF739FDD620FEF736FD0020FEF7F5
:1025680033FDDD20FEF730FD0020FEF72DFDF320C2
:10257800FEF72AFD0020FEF727FDE320FEF714FDF5
:102588000520FEF721FD0020FEF71EFD0A20FEF7BC
:102598001BFD0020FEF718FD1C20FEF715FD00208E
:1025A800FEF712FD3320FEF70FFD0020FEF70CFDAD
:1025B8004420FEF709FD0020FEF706FD5020FEF737
:1025C80003FD0020FEF700FD6220FEF7FDFC002061
:1025D800FEF7FAFC7820FEF7F7FC0020FEF7F4FC83
:1025E8008820FEF7F1FC0020FEF7EEFC9720FEF7AE
:1025F800EBFC0020FEF7E8FCA620FEF7E5FC002037
:10260800FEF7E2FCB720FEF7DFFC0020FEF7DCFC5B
:10261800C220FEF7D9FC0020FEF7D6FCC720FEF743
:10262800D3FC0020FEF7D0FCD120FEF7CDFC002023
:10263800FEF7CAFCD520FEF7C7FC0020FEF7C4FC55
:10264800DD20FEF7C1FC0020FEF7BEFCF320FEF7FC
:10265800BBFC0020FEF7B8FCE420FEF7A5FC012037
:10266800FEF7B2FC0020FEF7AFFC0120FEF7ACFC41
:102678000020FEF7A9FC0220FEF7A6FC0020FEF7CA
:10268800A3FC2A20FEF7A0FC0020FEF79DFC3C20BE
:10269800FEF79AFC0020FEF797FC4B20FEF794FC0F
:1026A8000020FEF791FC5D20FEF78EFC0020FEF76F
:1026B8008BFC7420FEF788FC0020FEF785FC842044
:1026C800FEF782FC0020FEF77FFC9320FEF77CFCDF
:1026D8000020FEF779FCA220FEF776FC0020FEF72A
:1026E80073FCB320FEF770FC0020FEF76DFCBE20E3
:1026F800FEF76AFC0020FEF767FCC420FEF764FCC6
:102708000020FEF761FCCD20FEF75EFC0020FEF7FE
:102718005BFCD320FEF758FC0020FEF755FCDD20BB
:10272800FEF752FC0020FEF74FFCF320FEF74CFCAE
:102738000020FEF749FCE520FEF736FC0020FEF7F6
:1027480043FC0020FEF740FC0020FEF73DFC002083
:10275800FEF73AFC0220FEF737FC0020FEF734FCB7
:102768002920FEF731FC0020FEF72EFC3C20FEF766
:102778002BFC0020FEF728FC4B20FEF725FC002050
:10278800FEF722FC5D20FEF71FFC0020FEF71CFC74
:102798007420FEF719FC0020FEF716FC8420FEF7D3
:1027A80013FC0020FEF710FC9320FEF70DFC002020
:1027B800FEF70AFCA220FEF707FC0020FEF704FC47
:1027C800B320FEF701FC0020FEF7FEFBBE20FEF75B
:1027D800FBFB0020FEF7F8FBC420FEF7F5FB00200A
:1027E800FEF7F2FBCD20FEF7EFFB0020FEF7ECFB37
:1027F800D320FEF7E9FB0020FEF7E6FBDC20FEF71E
:10280800E3FB0020FEF7E0FBF320FEF7DDFB0020F2
:10281800FEF7DAFBE620FEF7C7FB1120FEF7D4FB34
:102828000020FEF7D1FB3420FEF7CEFB0020FEF798
:10283800CBFB5620FEF7C8FB0020FEF7C5FB762031
:10284800FEF7C2FB0020FEF7BFFB7720FEF7BCFBBC
:102858000020FEF7B9FB6620FEF7B6FB0020FEF766
:10286800B3FB8820FEF7B0FB0020FEF7ADFB9920F4
:10287800FEF7AAFB0020FEF7A7FBBB20FEF7A4FB90
:102888000020FEF7A1FB9920FEF79EFB0020FEF733
:102898009BFB6620FEF798FB0020FEF795FB552072
:1028A800FEF792FB0020FEF78FFB5520FEF78CFB0E
:1028B8000020FEF789FB4520FEF786FB0020FEF787
:1028C80083FB4320FEF780FB0020FEF77DFB4420BE
:1028D800FEF77AFB0020FEF777FBE720FEF764FBA4
:1028E8003220FEF771FB0020FEF76EFB5520FEF745
:1028F8006BFB0020FEF768FB7620FEF765FB0020E7
:10290800FEF762FB6620FEF75FFB0020FEF75CFB2C
:102918006720FEF759FB0020FEF756FB6720FEF7FD
:1029280053FB0020FEF750FB8720FEF74DFB0020ED
:10293800FEF74AFB9920FEF747FB0020FEF744FB11
:10294800BB20FEF741FB0020FEF73EFB9920FEF777
:102958003BFB0020FEF738FB7720FEF735FB002015
:10296800FEF732FB4420FEF72FFB0020FEF72CFB7E
:102978005620FEF729FB0020FEF726FB2320FEF752
:1029880023FB0020FEF720FB3320FEF71DFB002071
:10299800FEF71AFB4520FEF717FB0020FEF714FB95
:1029A800E820FEF701FB0020FEF70EFB0020FEF7F3
:1029B8000BFB9920FEF708FB0020FEF705FB87209C
:1029C800FEF702FB0020FEF7FFFA8820FEF7FCFA6C
:1029D8000020FEF7F9FA7720FEF7F6FA0020FEF756
:1029E800F3FA6620FEF7F0FA0020FEF7EDFA8820E9
:1029F800FEF7EAFA0020FEF7E7FAAA20FEF7E4FA63
:102A08000020FEF7E1FABB20FEF7DEFA0020FEF711
:102A1800DBFA9920FEF7D8FA0020FEF7D5FA6620EF
:102A2800FEF7D2FA0020FEF7CFFA5520FEF7CCFACF
:102A38000020FEF7C9FA5520FEF7C6FA0020FEF777
:102A4800C3FA4420FEF7C0FA0020FEF7BDFA44207E
:102A5800FEF7BAFA0020FEF7B7FA5520FEF7B4FAE7
:102A68000020FEF7B1FAE920FEF79EFAAA20FEF749
:102A7800ABFA0020FEF7A8FA0020FEF7A5FA00201E
:102A8800FEF7A2FA0020FEF78FFAAA20FEF79CFABA
:102A9800CF20FEF789FA0020FEF796FA0020FEF70D
:102AA80093FA0020FEF790FA0020FEF78DFA002036
:102AB800FEF78AFA0020FEF787FA0020FEF784FA6C
:102AC8000020FEF781FA0020FEF77EFA0020FEF7CC
:102AD8007BFA0020FEF778FA0020FEF775FA00204E
:102AE800FEF772FA0020FEF76FFA0020FEF76CFA84
:102AF8000020FEF769FA0020FEF766FAF020FEF7DC
:102B080053FA0020FEF760FA5020FEF75DFA002025
:102B1800FEF75AFA0020FEF757FA0020FEF754FA9B
:102B2800F320FEF741FA0020FEF74EFAF920FEF7EF
:102B38003BFA0620FEF748FA1020FEF745FA29204E
:102B4800FEF742FA0020FEF73FFA3A20FEF72CFA89
:102B58005520FEF739FA1120FEF726FA642002F014
:102B680019FA2920FEF720FA3520FEF71DFA002071
:102B7800FEF72AFA5120FEF717FAFF20FEF724FA8B
:102B88005320FEF711FA2C20FEF71EFA5520FEF707
:102B98000BFA8220FEF718FA2C20FEF705FA01F04E
:102BA80044B8044B9B8845F21052934240F07E870C
:102BB80002E000BF8000002055214FF47040FEF76E
:102BC80023FAAA214FF20100FEF71EFA52214FF212
:102BD8000200FEF719FA08214FF20300FEF714FA73
:102BE80001214FF20400FEF70FFA0D214FF4304097
:102BF800FEF70AFA0D214BF20100FEF705FA0D2146
:102C08004BF20200FEF700FA34214FF43640FEF78B
:102C1800FBF934214BF20160FEF7F6F934214BF24F
:102C28000260FEF7F1F90D214FF43140FEF7ECF99F
:102C38000D214BF20110FEF7E7F90D214BF20210BE
:102C4800FEF7E2F934214FF43740FEF7DDF934217D
:102C58004BF20170FEF7D8F934214BF20270FEF7FF
:102C6800D3F900214FF43240FEF7CEF900214BF2A0
:102C78000120FEF7C9F900214BF20220FEF7C4F942
:102C880024214FF43840FEF7BFF924214BF6010008
:102C9800FEF7BAF924214BF60200FEF7B5F9012137
:102CA8004FF43F40FEF7B0F90F214FF43340FEF7E1
:102CB800ABF90F214BF20130FEF7A6F90F214BF2C9
:102CC8000230FEF7A1F934214FF43940FEF79CF9A0
:102CD80034214BF60110FEF797F934214BF6021018
:102CE800FEF792F908214FF43540FEF78DF90821D7
:102CF8004BF20150FEF788F908214BF20250FEF71B
:102D080083F903214FF44240FEF77EF924214FF462
:102D18003A40FEF779F924214BF60120FEF774F9C1
:102D280024214BF60220FEF76FF900214FF43C40B6
:102D3800FEF76AF978214BF60140FEF765F90021A4
:102D48004BF60240FEF760F900214FF43D40FEF7D4
:102D58005BF978214BF60150FEF756F900214BF646
:102D68000250FEF751F900214FF43E40FEF74CF9AE
:102D780064214BF60160FEF747F900214FF45140FA
:102D8800FEF742F933214DF20110FEF73DF900211B
:102D98004DF20210FEF738F934214DF20310FEF718
:102DA80033F900214DF20410FEF72EF93A214DF2C5
:102DB8000510FEF729F900214DF20610FEF724F957
:102DC8004A214DF20710FEF71FF900214DF20810B5
:102DD800FEF71AF95C214DF20910FEF715F90021EA
:102DE8004DF20A10FEF710F981214DF20B10FEF793
:102DF8000BF900214DF20C10FEF706F9A6214DF251
:102E08000D10FEF701F900214DF20E10FEF7FCF847
:102E1800E5214DF20F10FEF7F7F801214DF21010E1
:102E2800FEF7F2F813214DF21110FEF7EDF801212B
:102E38004DF21210FEF7E8F854214DF21310FEF788
:102E4800E3F801214DF21410FEF7DEF882214DF26D
:102E58001510FEF7D9F801214DF21610FEF7D4F837
:102E6800CA214DF21710FEF7CFF802214DF21810C3
:102E7800FEF7CAF800214DF21910FEF7C5F8022135
:102E88004DF21A10FEF7C0F801214DF21B10FEF7A3
:102E9800BBF802214DF21C10FEF7B6F834214DF2B2
:102EA8001D10FEF7B1F802214DF21E10FEF7ACF826
:102EB80067214DF21F10FEF7A7F802214DF22010EE
:102EC800FEF7A2F884214DF22110FEF79DF80221A9
:102ED8004DF22210FEF798F8A4214DF22310FEF7C8
:102EE80093F802214DF22410FEF78EF8B7214DF227
:102EF8002510FEF789F802214DF22610FEF784F816
:102F0800CF214DF22710FEF77FF802214DF228104D
:102F1800FEF77AF8DE214DF22910FEF775F8022146
:102F28004DF22A10FEF770F8F2214DF22B10FEF741
:102F38006BF802214DF22C10FEF766F8FE214DF2D7
:102F48002D10FEF761F803214DF22E10FEF75CF804
:102F580010214DF22F10FEF757F803214DF23010D3
:102F6800FEF752F833214DF23110FEF74DF80321E8
:102F78004DF23210FEF748F86D214DF23310FEF78E
:102F880043F800214FF45240FEF73EF833214DF24A
:102F98000120FEF739F800214DF20220FEF734F83F
:102FA80034214DF20320FEF72FF800214DF20420C2
:102FB800FEF72AF83A214DF20520FEF725F8002100
:102FC8004DF20620FEF720F84A214DF20720FEF7C1
:102FD8001BF800214DF20820FEF716F85C214DF28F
:102FE8000920FEF711F800214DF20A20FEF70CF82F
:102FF80081214DF20B20FEF707F800214DF20C203D
:10300800FEF702F8A6214DF20D20FDF7FDFF002185
:103018004DF20E20FDF7F8FFE5214DF20F20FDF7E8
:10302800F3FF01214DF21020FDF7EEFF13214DF2C1
:103038001120FDF7E9FF01214DF21220FDF7E4FF11
:1030480054214DF21320FDF7DFFF01214DF214202A
:10305800FDF7DAFF82214DF21520FDF7D5FF01219A
:103068004DF21620FDF7D0FFCA214DF21720FDF7CB
:10307800CBFF02214DF21820FDF7C6FF00214DF2CB
:103088001920FDF7C1FF02214DF21A20FDF7BCFF00
:1030980001214DF21B20FDF7B7FF02214DF21C2044
:1030A800FDF7B2FF34214DF21D20FDF7ADFF0221DF
:1030B8004DF21E20FDF7A8FF67214DF21F20FDF7F6
:1030C800A3FF02214DF22020FDF79EFF84214DF23F
:1030D8002120FDF799FF02214DF22220FDF794FFF0
:1030E800A4214DF22320FDF78FFF02214DF2242069
:1030F800FDF78AFFB7214DF22520FDF785FF022154
:103108004DF22620FDF780FFCF214DF22720FDF755
:103118007BFF02214DF22820FDF776FFDE214DF2DC
:103128002920FDF771FF02214DF22A20FDF76CFFDF
:10313800F2214DF22B20FDF767FF02214DF22C20E2
:10314800FDF762FFFE214DF22D20FDF75DFF032103
:103158004DF22E20FDF758FF10214DF22F20FDF7DC
:1031680053FF03214DF23020FDF74EFF33214DF27E
:103178003120FDF749FF03214DF23220FDF744FFCE
:103188006D214DF23320FDF73FFF00214FF45340EE
:10319800FDF73AFF33214DF20130FDF735FF0021ED
:1031A8004DF20230FDF730FF34214DF20330FDF7C8
:1031B8002BFF00214DF20430FDF726FF3A214DF296
:1031C8000530FDF721FF00214DF20630FDF71CFF09
:1031D8004A214DF20730FDF717FF00214DF2083064
:1031E800FDF712FF5C214DF20930FDF70DFF0021BC
:1031F8004DF20A30FDF708FF81214DF20B30FDF743
:1032080003FF00214DF20C30FDF7FEFEA6214DF222
:103218000D30FDF7F9FE00214DF20E30FDF7F4FEFA
:10322800E5214DF20F30FDF7EFFE01214DF2103090
:10323800FDF7EAFE13214DF21130FDF7E5FE0121FD
:103248004DF21230FDF7E0FE54214DF21330FDF738
:10325800DBFE01214DF21430FDF7D6FE82214DF23E
:103268001530FDF7D1FE01214DF21630FDF7CCFEE9
:10327800CA214DF21730FDF7C7FE02214DF2183072
:10328800FDF7C2FE00214DF21930FDF7BDFE022107
:103298004DF21A30FDF7B8FE01214DF21B30FDF753
:1032A800B3FE02214DF21C30FDF7AEFE34214DF283
:1032B8001D30FDF7A9FE02214DF21E30FDF7A4FED8
:1032C80067214DF21F30FDF79FFE02214DF220309D
:1032D800FDF79AFE84214DF22130FDF795FE02217B
:1032E8004DF22230FDF790FEA4214DF22330FDF778
:1032F8008BFE02214DF22430FDF786FEB7214DF2F8
:103308002530FDF781FE02214DF22630FDF77CFEC7
:10331800CF214DF22730FDF777FE02214DF22830FC
:10332800FDF772FEDE214DF22930FDF76DFE022118
:103338004DF22A30FDF768FEF2214DF22B30FDF7F1
:1033480063FE02214DF22C30FDF75EFEFE214DF2A8
:103358002D30FDF759FE03214DF22E30FDF754FEB6
:1033680010214DF22F30FDF74FFE03214DF2303082
:10337800FDF74AFE33214DF23130FDF745FE0321BA
:103388004DF23230FDF740FE6D214DF23330FDF73E
:103398003BFE00214FF45440FDF736FE33214DF239
:1033A8000140FDF731FE00214DF20240FDF72CFEF1
:1033B80034214DF20340FDF727FE00214DF2044071
:1033C800FDF722FE3A214DF20540FDF71DFE0021D2
:1033D8004DF20640FDF718FE4A214DF20740FDF771
:1033E80013FE00214DF20840FDF70EFE5C214DF260
:1033F8000940FDF709FE00214DF20A40FDF704FEE1
:1034080081214DF20B40FDF7FFFD00214DF20C40EC
:10341800FDF7FAFDA6214DF20D40FDF7F5FD00215F
:103428004DF20E40FDF7F0FDE5214DF20F40FDF79E
:10343800EBFD01214DF21040FDF7E6FD13214DF2A1
:103448001140FDF7E1FD01214DF21240FDF7DCFDD1
:1034580054214DF21340FDF7D7FD01214DF21440E0
:10346800FDF7D2FD82214DF21540FDF7CDFD01217A
:103478004DF21640FDF7C8FDCA214DF21740FDF781
:10348800C3FD02214DF21840FDF7BEFD00214DF2AB
:103498001940FDF7B9FD02214DF21A40FDF7B4FDC0
:1034A80001214DF21B40FDF7AFFD02214DF21C40FA
:1034B800FDF7AAFD34214DF21D40FDF7A5FD0221BF
:1034C8004DF21E40FDF7A0FD67214DF21F40FDF7AC
:1034D8009BFD02214DF22040FDF796FD84214DF21F
:1034E8002140FDF791FD02214DF22240FDF78CFDB0
:1034F800A4214DF22340FDF787FD02214DF224401F
:10350800FDF782FDB7214DF22540FDF77DFD022133
:103518004DF22640FDF778FDCF214DF22740FDF70B
:1035280073FD02214DF22840FDF76EFDDE214DF2BC
:103538002940FDF769FD02214DF22A40FDF764FD9F
:10354800F2214DF22B40FDF75FFD02214DF22C4098
:10355800FDF75AFDFE214DF22D40FDF755FD0321E3
:103568004DF22E40FDF750FD10214DF22F40FDF792
:103578004BFD03214DF23040FDF746FD33214DF25E
:103588003140FDF741FD03214DF23240FDF73CFD8E
:103598006D214DF23340FDF737FD00214FF45540C2
:1035A800FDF732FD33214DF20150FDF72DFD0021CD
:1035B8004DF20250FDF728FD34214DF20350FDF77E
:1035C80023FD00214DF20450FDF71EFD3A214DF276
:1035D8000550FDF719FD00214DF20650FDF714FDC9
:1035E8004A214DF20750FDF70FFD00214DF208501A
:1035F800FDF70AFD5C214DF20950FDF705FD00219C
:103608004DF20A50FDF700FD81214DF20B50FDF7F8
:10361800FBFC00214DF20C50FDF7F6FCA6214DF203
:103628000D50FDF7F1FC00214DF20E50FDF7ECFCBA
:10363800E5214DF20F50FDF7E7FC01214DF2105046
:10364800FDF7E2FC13214DF21150FDF7DDFC0121DD
:103658004DF21250FDF7D8FC54214DF21350FDF7EE
:10366800D3FC01214DF21450FDF7CEFC82214DF21E
:103678001550FDF7C9FC01214DF21650FDF7C4FCA9
:10368800CA214DF21750FDF7BFFC02214DF2185028
:10369800FDF7BAFC00214DF21950FDF7B5FC0221E7
:1036A8004DF21A50FDF7B0FC01214DF21B50FDF709
:1036B800ABFC02214DF21C50FDF7A6FC34214DF263
:1036C8001D50FDF7A1FC02214DF21E50FDF79CFC98
:1036D80067214DF21F50FDF797FC02214DF2205053
:1036E800FDF792FC84214DF22150FDF78DFC02215B
:1036F8004DF22250FDF788FCA4214DF22350FDF72E
:1037080083FC02214DF22450FDF77EFCB7214DF2D7
:103718002550FDF779FC02214DF22650FDF774FC87
:10372800CF214DF22750FDF76FFC02214DF22850B2
:10373800FDF76AFCDE214DF22950FDF765FC0221F8
:103748004DF22A50FDF760FCF2214DF22B50FDF7A7
:103758005BFC02214DF22C50FDF756FCFE214DF288
:103768002D50FDF751FC03214DF22E50FDF74CFC76
:1037780010214DF22F50FDF747FC03214DF2305038
:10378800FDF742FC33214DF23150FDF73DFC03219A
:103798004DF23250FDF738FC6D214DF23350FDF7F4
:1037A80033FC00214FF45640FDF72EFC33214DF237
:1037B8000160FDF729FC00214DF20260FDF724FCB1
:1037C80034214DF20360FDF71FFC00214DF2046027
:1037D800FDF71AFC3A214DF20560FDF715FC0021B2
:1037E8004DF20660FDF710FC4A214DF20760FDF727
:1037F8000BFC00214DF20860FDF706FC5C214DF240
:103808000960FDF701FC00214DF20A60FDF7FCFBA1
:1038180081214DF20B60FDF7F7FB00214DF20C60A2
:10382800FDF7F2FBA6214DF20D60FDF7EDFB00213F
:103838004DF20E60FDF7E8FBE5214DF20F60FDF754
:10384800E3FB01214DF21060FDF7DEFB13214DF281
:103858001160FDF7D9FB01214DF21260FDF7D4FB91
:1038680054214DF21360FDF7CFFB01214DF2146096
:10387800FDF7CAFB82214DF21560FDF7C5FB01215A
:103888004DF21660FDF7C0FBCA214DF21760FDF737
:10389800BBFB02214DF21860FDF7B6FB00214DF28B
:1038A8001960FDF7B1FB02214DF21A60FDF7ACFB80
:1038B80001214DF21B60FDF7A7FB02214DF21C60B0
:1038C800FDF7A2FB34214DF21D60FDF79DFB02219F
:1038D8004DF21E60FDF798FB67214DF21F60FDF762
:1038E80093FB02214DF22060FDF78EFB84214DF2FF
:1038F8002160FDF789FB02214DF22260FDF784FB70
:10390800A4214DF22360FDF77FFB02214DF22460D4
:10391800FDF77AFBB7214DF22560FDF775FB022113
:103928004DF22660FDF770FBCF214DF22760FDF7C1
:103938006BFB02214DF22860FDF766FBDE214DF29C
:103948002960FDF761FB02214DF22A60FDF75CFB5F
:10395800F2214DF22B60FDF757FB02214DF22C604E
:10396800FDF752FBFE214DF22D60FDF74DFB0321C3
:103978004DF22E60FDF748FB10214DF22F60FDF748
:1039880043FB03214DF23060FDF73EFB33214DF23E
:103998003160FDF739FB03214DF23260FDF734FB4E
:1039A8006D214DF23360FDF72FFB55214FF4704028
:1039B800FDF72AFBAA214FF20100FDF725FB522152
:1039C8004FF20200FDF720FB08214FF20300FDF73C
:1039D8001BFB00214FF20400FDF716FBCC214FF42E
:1039E8003140FDF711FB00214BF20110FDF70CFBF4
:1039F80005214FF43640FDF707FB70214FF437409F
:103A0800FDF702FB70214BF20170FDF7FDFA012171
:103A18004FF43840FDF7F8FA03214BF60100FDF7A3
:103A2800F3FA03214BF60200FDF7EEFA03214BF6F9
:103A38000300FDF7E9FA02214FF43C40FDF7E4FAF0
:103A480000214BF60140FDF7DFFA00214BF602405A
:103A5800FDF7DAFAD0214FF44940FDF7D5FA0221F3
:103A68004CF60110FDF7D0FA50214CF60210FDF784
:103A7800CBFA50214CF60310FDF7C6FA50214CF64C
:103A88000410FDF7C1FA00214FF45450FDF7BCFAB9
:103A980055214FF46850FDF7B7FA4FF48850FDF7F9
:103AA80083FA4FF42450FDF77FFABEE07D4B9B88E4
:103AB80041F66312934240F0B880E220FDF774FAB1
:103AC8001D20FDF781FA0220FDF77EFA0420FDF79C
:103AD8007BFA642001F05EFAE020FDF765FA012028
:103AE800FDF772FA0A2001F055FAE020FDF75CFABA
:103AF8000320FDF769FA0C2001F04CFA0120FDF7CC
:103B080053FA0A2001F046FAE620FDF74DFA2F2075
:103B1800FDF75AFAFF20FDF757FAFF20FDF754FA90
:103B2800B020FDF741FA2020FDF74EFA0020FDF7FE
:103B38004BFA0320FDF748FA40F21F30FDF744FA2C
:103B48000120FDF741FA40F2DF10FDF73DFA0020B1
:103B5800FDF73AFAB420FDF727FA0420FDF734FA06
:103B680040F21F40FDF730FA0020FDF72DFA2E2015
:103B7800FDF72AFA0020FDF727FA0020FDF724FABE
:103B88000020FDF721FA0020FDF71EFAB620FDF708
:103B98000BFA0220FDF718FA4FF40370FDF714FA38
:103BA8000020FDF711FA1720FDF70EFA1520FDF792
:103BB8000BFA0020FDF708FA0020FDF705FAF020BF
:103BC800FDF7F2F90320FDF7FFF92920FDF7ECF9DD
:103BD800D020FDF7E9F90020FDF7F6F9BE20FDF742
:103BE800E3F90520FDF7F0F9FE20FDF7EDF90120D6
:103BF800FDF7EAF90020FDF7E7F90020FDF7E4F901
:103C08000020FDF7E1F9B820FDF7CEF90320FDF714
:103C1800DBF90120FDF7D8F9BA20FDF7C5F9012035
:103C2800FDF7D2F96420FDF75BFD1E4B9B8849F236
:103C38004132934211D01B4B9B8845F2103293427C
:103C48000BD0184B9B8845F21052934205D0154B68
:103C58009B8841F66312934217D1134B9B69124A12
:103C680023F00F039361104B9B690F4A23F4706391
:103C780093610D4B9B690C4A43F0010393610A4B16
:103C88009B69094A43F4807393610020FDF75CFD4A
:103C9800064B01221A604FF6FF7000F009F800BFCA
:103CA80080BD00BF80000020040100A08081214267
:103CB80080B584B000AF78600023FB60104B1B8890
:103CC800BB600F4B5B881A46BB6802FB03F3BB6003
:103CD80000210020FDF7BCF9FDF7ACF90023FB60DB
:103CE80006E0084B7A6892B25A80FB680133FB60A1
:103CF800FA68BB689A42F4D300BF1037BD4680BD4E
:103D080080000020FE07006C90B585B000AF044627
:103D1800084611461A462346FB800346BB800B46DD
:103D2800FB701346BB70BB887B81BB78DB08DBB2BA
:103D38001A46BB7803F00703DBB2002B14BF01233C
:103D48000023DBB21344DBB2BA785208D2B202FBCA
:103D580003F37B72FB78203BFB7000237B7375E0D9
:103D6800BB780C2B0BD1FA78797B3E4813465B0065
:103D780013449B0003440B441B78FB7325E0BB787A
:103D8800102B08D1FA787B7B374912010A44134477
:103D98001B78FB7319E0BB78182B0BD1FA78797B69
:103DA80032481346DB0013449B0003440B441B7842
:103DB800FB730AE0BB78202B4DD1FA787B7B2C492A
:103DC800D2010A4413441B78FB730023BB7335E00C
:103DD80097F90F30002B07DA264B1A68B988FB8849
:103DE8001846FDF7B3FB0AE097F82030002B06D100
:103DF800214B1A68B988FB881846FDF7A7FBFB7B9F
:103E08005B00FB73BB880133BB801C4B5B88BA88A3
:103E18009A4222D2BA887B89D21ABB789A420AD1AE
:103E28007B89BB80FB880133FB80144B1B88FA8895
:103E38009A4207D312E0BB7B0133BB73BB7B072BD2
:103E4800C6D900E000BF7B7B01337B737A7B7B7A2A
:103E58009A4285D302E000BF00E000BF1437BD4698
:103E680090BD00BFB4760008287B000818810008C0
:103E7800748E00080000002004000020800000204C
:103E880080B485B000AF03460A46FB711346BB7188
:103E98000123FB6004E0FA79FB6802FB03F3FB6093
:103EA800BB795A1EBA71002BF5D1FB681846143736
:103EB800BD4680BC7047000090B589B002AFBA60BB
:103EC8001A460346FB810B46BB811346FB71002350
:103ED800BB750023FB757EE0FA79FB7DD31ADBB254
:103EE800013BDBB219460A20FFF7CAFF0246BB684E
:103EF800B3FBF2F13C4BA3FB0123DA0813469B000A
:103F080013445B00CA1A13467B75BB7D002B43D153
:103F1800FA7DFB79013B9A423EDA7B7D002B39D151
:103F280097F92C30002B1ADA97F828305B08DBB2A7
:103F38009BB2FA7D92B202FB03F39AB2FB89134457
:103F480098B297F82C3003F00103DBB297F82820D9
:103F5800B989009313463022FFF7D6FE38E097F868
:103F680028305B08DBB29BB2FA7D92B202FB03F306
:103F78009AB2FB89134498B297F82C3003F00103E6
:103F8800DBB297F82820B989009313462022FFF75F
:103F9800BBFE1DE00123BB7597F828305B08DBB238
:103FA8009BB2FA7D92B202FB03F39AB2FB891344E7
:103FB80098B27B7D3033DAB297F82C3003F00103E6
:103FC800DBB297F82840B98900932346FFF79CFE97
:103FD800FB7D0133FB75FA7DFB799A42FFF47CAFD8
:103FE80000BF1C37BD4690BDCDCCCCCC90B587B0BA
:103FF80002AF0446084611461A462346FB8003468C
:10400800BB800B467B8013463B80FB88FB737A881A
:10401800FB8813447B803A88BB8813443B8025E0A7
:10402800FA887B889A4207D3FB7BFB8097F820307D
:104038009AB2BB881344BB80BA883B889A421ED286
:104048007B6A1A7897F82040B988F888002300938B
:104058002346FFF759FE97F820305B08DBB29AB287
:10406800FB881344FB807B6A01337B627B6A1B7885
:104078007E2B05D87B6A1B781F2BD1D800E000BFA8
:1040880000BF1437BD4690BD90B58DB002AF00F0AB
:104098001FFF00F0B1FA00F0C1FB00F049FB00F08F
:1040A80087FC00F007FB012000F074FFFDF71CFC03
:1040B800B64B4FF478421A600421B54802F07AFCF6
:1040C8004FF4FA73FB844FF46173FB836423BB835F
:1040D800AF4B1B68FA8C9A6347237B833223BB84DC
:1040E80064233B830123FB82002387F823300123C9
:1040F80087F82230002387F8213001222021A548A3
:1041080001F0F1FD01222021A34801F0ECFD9F4BB5
:1041180000221A60A14B019320230093202332220E
:104128004FF4AF711E20FFF761FF9D4B01932023D1
:1041380000932023C8224FF4AF71A020FFF756FF49
:1041480097F82330002B40F09280FB8C954AA2FB15
:104158000323DB089BB2184607F108030A22194615
:1041680003F008FA07F108031846FCF759F8034664
:104178001A4607F1080313448B491A460B461B8855
:104188001380BB8C39460A22184603F0F3F93B46E4
:104198001846FCF745F803461A463B461344834A3B
:1041A8001068186012791A71784B4FF478421A60C7
:1041B8007F4B0193202300932023C8228C211E20AB
:1041C800FFF714FF714B00221A607A4B01932023EA
:1041D80000932023C8228C216420FFF707FF6B4B34
:1041E80000221A60744B0193182300931823D222DB
:1041F80028211E20FFF7FAFE704B01931823009325
:1042080018234FF4827264211E20FFF7EFFE07F196
:1042180008030193202300932023C8224FF48771B9
:10422800C820FFF7E3FE664B019320230093202369
:10423800C8224FF487711E20FFF7D8FE3B46019332
:10424800202300932023C8224FF49B719620FFF768
:10425800CDFE5C4B0193202300932023C8224FF40A
:104268009B711E20FFF7C2FE012387F8233001202F
:1042780000F01CFC0346032B5CD801A252F823F083
:104288003D4300083D4300083D43000899420008AB
:10429800642000F07FFE97F82130012B21D1012303
:1042A80087F82230002387F82130384B4FF47842C2
:1042B8001A603F4B0193202300932023C8228C21AE
:1042C8001E20FFF793FE314B00221A60394B0193F1
:1042D800202300932023C8228C216420FFF786FE28
:1042E80027E097F82230012B23D1002387F82230CA
:1042F800012387F82130254B00221A602C4B0193AB
:10430800202300932023C8228C211E20FFF76EFE55
:104318001E4B4FF478421A60264B019320230093DA
:104328002023C8228C216420FFF760FE174B00224F
:104338001A6000BF97F82230012B40F084800120DA
:1043480000F0B4FB0346022B05D0012000F0AEFBC1
:104358000346012B77D1012000F0A8FB0346022B6E
:1043680003D1FB8C3233FB8408E0012000F09EFB74
:104378000346012B02D1FB8C6433FB84FA8CFB8B44
:104388009A4221D96423FB8425E000BF0000002065
:10439800D8000020000C01400018014024760008D5
:1043A8002C760008CDCCCCCC3076000834760008CA
:1043B8003C760008407600084876000858760008E1
:1043C800707600087C760008FA8CBB8B9A4202D281
:1043D8004FF46173FB847E4B1B68FA8C9A63FB8CE9
:1043E8007C4AA2FB0323DB089BB2184607F10803AB
:1043F8000A22194603F0BEF807F108031846FBF72E
:104408000FFF03461A4607F10803134472491A4678
:104418000B461B88138007F10803019320230093A0
:104428002023C8224FF48771C820FFF7DFFD6B4BAC
:104438000193202300932023C8224FF487711E2064
:10444800FFF7D4FDBCE097F82130012B62D10120A1
:1044580000F02CFB0346022B05D0012000F026FBC0
:104468000346012B56D1012000F020FB0346012B07
:1044780003D1BB8C0A33BB8408E0012000F016FB93
:104488000346022B02D1BB8C0133BB84BA8C3B8B15
:104498009A4203D9BB8C643BBB8405E0BA8CFB8A87
:1044A8009A4201D20123BB84BB8C4D4A02FB03F321
:1044B8004C4A92FBF3F37B83454B1B687A8B9A62D9
:1044C800BB8C39460A22184603F054F83B46184676
:1044D800FBF7A6FE03461A463B461344424A1068B9
:1044E800186092889A803B460193202300932023EA
:1044F800C8224FF49B719620FFF778FD3B4B019340
:10450800202300932023C8224FF49B711E20FFF71D
:104518006DFD55E0364800F049FE0A21344800F0A8
:10452800F3FE334800F0EAFF0346BB82BB8A184615
:10453800FCF772FB03461846FBF7DEFF22A3D3E91C
:104548000023FCF731F803460C4618462146FCF7D1
:104558005DFA03463B613869FCF706FD0346BB82FA
:104568003869FCF701FD02460023019320230093DC
:1045780001234FF4AF715E20FFF79EFCBB8A1846FB
:10458800FCF74EFB034619463869FCF793FA0346D5
:104598003B6118493869FCF797FB03463B6138696A
:1045A800FCF7E2FC024680230193202300930323B7
:1045B8004FF4AF716E20FFF77FFC142000F0EAFC87
:1045C800BEE500BFAFF300806666666666664A3F72
:1045D800D8000020CDCCCCCC30760008707600080E
:1045E80040420F0000A24A04847600087C76000846
:1045F8001801002000007A4480B596B000AF07F19A
:10460800300328220021184602F0B6FF07F11C03E8
:1046180000221A605A609A60DA601A613B1D002213
:104628001A605A609A60DA601A615A6101233B6322
:104638004FF480337B630023BB6301233B64022375
:10464800FB644FF480333B654FF4E0137B6507F15F
:104658003003184601F060FB0346002B01D000F040
:104668008FFA0F23FB6102233B6200237B624FF426
:104678008063BB620023FB6207F11C03022118461A
:1046880001F0CAFD0346002B01D000F079FA02239D
:104698007B604FF40043FB603B1D184601F044FF6C
:1046A8000346002B01D000F06BFA00BF5837BD4617
:1046B80080BD000080B584B000AF3B1D00221A60A9
:1046C8005A609A60184B194A1A60174B00229A6070
:1046D800154B00221A73144B00221A75124B4FF413
:1046E8006022DA61104B00225A600F4B01221A61D6
:1046F8000D4800F071FC0346002B01D000F040FA91
:1047080001237B600123BB600023FB603B1D19462E
:10471800054800F0FFFE0346002B01D000F030FAF8
:1047280000BF1037BD4680BD18010020002401409D
:1047380080B58EB000AF07F1280300221A605A60D6
:104748009A60DA6007F1200300221A605A603B1D64
:1047580000221A605A609A60DA601A615A619A6196
:104768002C4B2D4A1A602B4B47225A60294B0022AA
:104778009A60284B40F2E732DA60264B00221A6131
:10478800244B00229A61234802F0B4F80346002B18
:1047980001D000F0F5F94FF48053BB6207F128030C
:1047A80019461C4802F00AFA0346002B01D000F013
:1047B800E7F9184802F0C9F80346002B01D000F0C9
:1047C800DFF900233B6200237B6207F120031946CF
:1047D800104802F08BFD0346002B01D000F0D0F901
:1047E80060237B600023BB600023FB6000237B61A8
:1047F8003B1D04221946074802F01AF90346002B0C
:1048080001D000F0BDF9034800F04EFA00BF383778
:10481800BD4680BDD80000200004004080B58AB0A5
:1048280000AF07F1180300221A605A609A60DA6034
:104838005A4B9B69594A43F040039361574B9B6914
:1048480003F040037B617B69544B9B69534A43F0F7
:1048580080039361514B9B6903F080033B613B6983
:104868004E4B9B694D4A43F0040393614B4B9B6944
:1048780003F00403FB60FB68484B9B69474A43F01D
:1048880008039361454B9B6903F00803BB60BB6851
:10489800424B9B69414A43F4807393613F4B9B6948
:1048A80003F480737B607B683C4B9B693B4A43F015
:1048B80020039361394B9B6903F020033B603B68FD
:1048C80000222021364801F00EFA01220121354844
:1048D80001F009FA00222021324801F004FA1823D5
:1048E800BB610023FB6101233B6207F118031946F2
:1048F8002B4801F077F82023BB610123FB610223D9
:104908003B6203237B6207F118031946244801F030
:1049180069F84FF46063BB610023FB6100233B62CD
:1049280007F118031946204801F05CF80123BB6120
:104938000023FB6102233B6207F1180319461B4859
:1049480001F050F80123BB610123FB6101233B62A5
:1049580003237B6207F118031946124801F042F855
:104968000623BB610023FB6100233B6207F11803A8
:1049780019460C4801F036F82023BB610123FB617E
:1049880002233B6203237B6207F11803194605489B
:1049980001F028F800BF2837BD4680BD001002404E
:1049A80000180140000C0140001C014000080140B3
:1049B80080B58EB000AF07F11C0300221A605A6060
:1049C8009A60DA601A615A619A613B4600221A605D
:1049D8005A609A60DA601A615A619A61304B4FF0F6
:1049E80020421A602E4B2F4A5A602D4B06229A609D
:1049F8002B4B0022DA602A4B00221A61284B102226
:104A08005A61274B00229A61254B0022DA61244B18
:104A180000221A62224B00225A62214B4FF4805224
:104A28009A621F4B0022DA621D4B4FF480421A63D0
:104A38001B4B00225A631A4B00229A630623FB6120
:104A48000F233B621A237B620023BB621023FB62A5
:104A580011233B6300237B6303233B600F237B60AD
:104A68000623BB600023FB6010233B6111237B619D
:104A78000023BB613A4607F11C031946084801F0B8
:104A8800F1FE0346002B01D000F07AF8064BDB69F3
:104A9800054A43F48063D36100BF3837BD4680BD03
:104AA80090000020040100A00000014080B582B001
:104AB80000AF0346FB71FB79012B02D12D4B01227C
:104AC8001A702C4B1B78002B35D010212A4801F086
:104AD800F3F80346002B0DD00821274801F0ECF825
:104AE8000346002B06D00121244801F0E5F80346CF
:104AF800012B20D10A2000F04DFA1E4B00221A701B
:104B080010211D4801F0D8F80346002B01D10123DC
:104B18002CE00821184801F0CFF80346002B01D1FA
:104B2800022323E00121154801F0C6F80346012BB2
:104B38001AD103231AE010210F4801F0BDF80346EB
:104B4800012B12D108210C4801F0B6F80346012BBD
:104B58000BD10121094801F0AFF80346002B04D11D
:104B6800044B01221A7000E000BF002318460837E2
:104B7800BD4680BD08000020001801400008014023
:104B880080B400AF00BFBD4680BC704780B584B01C
:104B980000AF164B9B69154A43F001039361134B11
:104BA8009B6903F00103BB60BB68104BDB690F4ACC
:104BB80043F08053D3610D4BDB6903F080537B6076
:104BC8007B68042000F0DAFE094B5B68FB60FB6839
:104BD80023F0E063FB60FB6843F00073FB60044A6A
:104BE800FB68536000BF1037BD4680BD001002400F
:104BF8000000014080B588B000AF786007F110036D
:104C080000221A605A609A60DA607B681B68144A4E
:104C1800934221D1134B9B69124A43F40073936169
:104C2800104B9B6903F40073FB60FB680D4B9B6999
:104C38000C4A43F0040393610A4B9B6903F0040395
:104C4800BB60BB6802233B6103237B6107F1100350
:104C58001946054800F0C6FE00BF2037BD4680BD96
:104C680000240140001002400008014080B485B0D3
:104C780000AF78607B681B68094A93420BD1094BE7
:104C8800DB69084A43F00203D361064BDB6903F092
:104C98000203FB60FB6800BF1437BD4680BC704749
:104CA800000400400010024080B588B000AF786072
:104CB80007F1100300221A605A609A60DA607B6874
:104CC8001B680F4A934217D10E4B9B690D4A43F05C
:104CD800040393610B4B9B6903F00403FB60FB68BF
:104CE80080233B6102237B610223FB6107F11003F0
:104CF8001946054800F076FE00BF2037BD4680BD46
:104D080000040040001002400008014080B586B051
:104D180000AF07F1080300221A605A609A60DA604F
:104D28001F4B1B68002B36D11D4B01221A601D4BEF
:104D38005B691C4A43F4807353611A4B5B6903F443
:104D480080737B607B6841F20103BB600223FB60D8
:104D580003237B6107F108031946134800F042FE5C
:104D68004FF68073BB600223FB6003237B6107F16E
:104D7800080319460D4800F035FE4CF23373BB604A
:104D88000223FB6003237B6107F1080319460848E7
:104D980000F028FE00E000BF1837BD4680BD00BF08
:104DA800340000200010024000200140001801409B
:104DB8000014014080B582B000AF7860FFF7A6FF0D
:104DC80000BF0837BD4680BD80B400AF00BFBD46F8
:104DD80080BC704780B400AFFEE780B400AFFEE748
:104DE80080B400AFFEE780B400AFFEE780B400AF48
:104DF80000BFBD4680BC704780B400AF00BFBD4651
:104E080080BC704780B400AF00BFBD4680BC70470F
:104E180080B500AF00F0A2F800BF80BD80B400AF3D
:104E2800154B1B68144A43F001031360124B5A6870
:104E38001149124B13404B600F4B1B680E4A23F06D
:104E4800847323F4803313600B4B1B680A4A23F4E2
:104E580080231360084B5B68074A23F4FE03536002
:104E6800054B4FF41F029A60054B4FF000629A60A1
:104E780000BFBD4680BC7047001002400000FFF82C
:104E880000ED00E0002103E00B4B5B584350043178
:104E98000A480B4B42189A42F6D30A4A02E000230A
:104EA80042F8043B084B9A42F9D3FFF7B7FF02F0E8
:104EB80025FBFFF7E9F870473CBE0008000000201A
:104EC80018000020180000204C010020FEE7000018
:104ED80080B500AF084B1B68074A43F01003136006
:104EE800032000F04BFD002000F008F8FFF74EFE0D
:104EF8000023184680BD00BF0020024080B582B064
:104F080000AF7860124B1A68124B1B7819464FF4A1
:104F18007A73B3FBF1F3B2FBF3F3184600F055FDD7
:104F28000346002B01D001230EE07B680F2B0AD823
:104F3800002279684FF0FF3000F02BFD064A7B68AD
:104F48001360002300E0012318460837BD4680BDE2
:104F58000C000020140000201000002080B400AFD6
:104F6800054B1B781A46054B1B681344034A13600C
:104F780000BFBD4680BC70471400002048010020D7
:104F880080B400AF024B1B681846BD4680BC704712
:104F98004801002080B584B000AF7860FFF7F0FFCB
:104FA800B8607B68FB60FB68B3F1FF3F05D0094B35
:104FB8001B781A46FB681344FB6000BFFFF7E0FF4D
:104FC8000246BB68D31AFA689A42F7D800BF10376E
:104FD800BD4680BD1400002080B586B000AF786063
:104FE8000023FB7500233B610023BB600023FB60AB
:104FF8007B68002B01D10123CEE07B689B68002BE6
:105008007B689B6A002B09D17B680022DA627B6887
:10501800002283F824207868FFF7ECFD786800F018
:10502800C3FB0346FB757B689B6A03F01003002BE8
:1050380040F0A980FB7D002B40F0A5807B689B6A2F
:1050480023F4885323F0020343F002027B689A6238
:105058007B685A687B681B6851498B420AD17B6818
:10506800DB69B3F5402F02D07B68DB6904E04FF4BD
:10507800002301E07B68DB691A437B681B7B5B00CC
:105088001343BA681343BB607B689B68B3F5807FA2
:1050980003D07B689B68012B02D14FF4807300E03A
:1050A80000233A6913433B617B681B7D012B19D1AF
:1050B8007B681B7B002B09D17B689B69013B5A03EA
:1050C8003B69134343F400633B610BE07B689B6AD5
:1050D80043F020027B689A627B68DB6A43F0010236
:1050E8007B68DA627B681B685B6823F469417B68CC
:1050F8001B683A690A435A607B681B689A68294B9F
:1051080013407A681268B9680B4393607B689B68A0
:10511800B3F5807F03D07B689B68012B04D17B6843
:105128001B69013B1B05FB607B681B68DB6A23F47A
:1051380070017B681B68FA680A43DA627B681B683F
:105148009A68194B1340BA689A420BD17B680022BF
:10515800DA627B689B6A23F0030343F001027B68F1
:105168009A6218E07B689B6A23F0120343F01002EE
:105178007B689A627B68DB6A43F001027B68DA62CB
:105188000123FB7507E07B689B6A43F010027B688C
:105198009A620123FB75FB7D18461837BD4680BD12
:1051A800003C0140FDF7E1FFFE0E1FFF80B584B013
:1051B80000AF78600023FB737B6893F82430012BE1
:1051C80001D1022398E07B68012283F824207868C3
:1051D80000F098FA0346FB73FB7B002B40F08780B6
:1051E8007B689B6A23F4407323F0010343F48072C5
:1051F8007B689A627B681B68414A934205D1414BA0
:105208005B6803F47023002B15D17B689B6A23F439
:1052180080127B689A627B681B685B6803F4806312
:10522800002B26D07B689B6A23F4405343F48052BA
:105238007B689A621DE07B689B6A43F480127B68F6
:105248009A627B681B682F4A934204D07B681B686C
:105258002B4A93420DD12B4B5B6803F48063002BE0
:1052680007D07B689B6A23F4405343F480527B68E1
:105278009A627B689B6A03F48053002B06D07B6894
:10528800DB6A23F006027B68DA6202E07B680022B0
:10529800DA627B68002283F824207B681B686FF041
:1052A80002021A607B681B689B6803F46023B3F5ED
:1052B800602F13D17B681B68114A934205D1114BAB
:1052C8005B6803F47023002B08D17B681B689A681D
:1052D8007B681B6842F4A0029A600CE07B681B683C
:1052E8009A687B681B6842F480129A6003E07B68C6
:1052F800002283F82420FB7B18461037BD4680BD6A
:10530800002801400024014090B587B000AF7860C4
:10531800396000237B610023FB6000233B61FFF7BA
:105328002FFE78617B681B689B6803F48073002BF1
:105338000BD07B689B6A43F020027B689A627B688B
:10534800002283F824200123C8E07B681B685B687F
:1053580003F48073002B2AD17B681B68DB6A03F493
:105368007003002B23D11AE03B68B3F1FF3F16D03E
:105378003B68002B07D0FFF703FE02467B69D31A70
:105388003A689A420BD27B689B6A43F004027B68B6
:105398009A627B68002283F8242003239EE07B68BE
:1053A8001B681B6803F00203002BDDD06CE04D4B3B
:1053B8001C68022001F06EF90346B4FBF3F27B6827
:1053C8001B681969484B0B40002B18D17B681B6878
:1053D800D968464B0B40002B11D17B681B681969B3
:1053E800434B0B40002B08D17B681B68D968414BA5
:1053F8000B40002B01D1142320E029231EE07B68F9
:105408001B6819693A4B0B40002B06D17B681B6857
:10541800D968384B0B40002B0DD07B681B68196985
:10542800354B0B40002B08D17B681B68D968324B81
:105438000B40002B01D1542300E0FC2302FB03F3B3
:105448003B611DE03B68B3F1FF3F16D03B68002B82
:1054580007D0FFF795FD02467B69D31A3A689A424E
:105468000BD27B689B6A43F004027B689A627B6874
:10547800002283F82420032330E0FB680133FB601B
:10548800FB683A699A42DDD87B681B686FF01202A4
:105498001A607B689B6A43F400727B689A627B6837
:1054A8001B689B6803F46023B3F5602F15D17B68F4
:1054B8001B7B002B11D17B689B6A23F480727B686D
:1054C8009A627B689B6A03F48053002B05D17B6842
:1054D8009B6A43F001027B689A62002318461C37D6
:1054E800BD4690BD0C000020244992242449920016
:1054F80092244912922449004992240080B483B02E
:1055080000AF78607B681B68DB6C18460C37BD46BB
:1055180080BC704780B485B000AF786039600023E4
:10552800FB730023BB607B6893F82430012B01D107
:105538000223DCE07B68012283F824203B685B6857
:10554800062B1CD87B681B68596B3B685A68134646
:105558009B001344053B1F2202FA03F3DB43194067
:105568003B6818683B685A6813469B001344053B20
:1055780000FA03F27B681B680A435A633CE03B6805
:105588005B680C2B1CD87B681B68196B3B685A68D6
:1055980013469B001344233B1F2202FA03F3DB4309
:1055A80019403B6818683B685A6813469B001344C7
:1055B800233B00FA03F27B681B680A431A631BE06B
:1055C8007B681B68D96A3B685A6813469B0013447A
:1055D800413B1F2202FA03F3DB4319403B6818687A
:1055E8003B685A6813469B001344413B00FA03F298
:1055F8007B681B680A43DA623B681B68092B1CD965
:105608007B681B68D9683B681A6813465B001344BB
:105618001E3B072202FA03F3DB4319403B689868F4
:105628003B681A6813465B0013441E3B00FA03F2FA
:105638007B681B680A43DA6019E07B681B68196994
:105648003B681A6813465B001344072202FA03F307
:10565800DB4319403B6898683B681A6813465B004F
:10566800134400FA03F27B681B680A431A613B681B
:105678001B68102B03D03B681B68112B32D17B6849
:105688001B681D4A934225D17B681B689B6803F4FD
:105698000003002B26D17B681B689A687B681B680F
:1056A80042F400029A603B681B68102B1AD1134B16
:1056B8001B68134AA2FB03239A0C13469B0013444E
:1056C8005B00BB6002E0BB68013BBB60BB68002BB2
:1056D800F9D107E07B689B6A43F020027B689A62F5
:1056E8000123FB737B68002283F82420FB7B184688
:1056F8001437BD4680BC7047002401400C000020D0
:1057080083DE1B4380B584B000AF78600023FB6064
:105718000023BB607B681B689B6803F00103012BB7
:1057280039D07B681B689A687B681B6842F0010265
:105738009A601B4B1B681B4AA2FB03239B0CBB6094
:1057480002E0BB68013BBB60BB68002BF9D1FFF7E7
:1057580017FCF86018E0FFF713FC0246FB68D31A41
:10576800022B11D97B689B6A43F010027B689A620E
:105778007B68DB6A43F001027B68DA627B6800229F
:1057880083F82420012307E07B681B689B6803F0EB
:105798000103012BDFD1002318461037BD4680BD19
:1057A8000C00002083DE1B4380B584B000AF786016
:1057B8000023FB607B681B689B6803F00103012BD7
:1057C80027D17B681B689A687B681B6822F00102F6
:1057D8009A60FFF7D5FBF86014E0FFF7D1FB0246AB
:1057E800FB68D31A022B0DD97B689B6A43F0100221
:1057F8007B689A627B68DB6A43F001027B68DA6245
:10580800012307E07B681B689B6803F00103012BF9
:10581800E3D0002318461037BD4680BD80B485B05C
:1058280000AF78607B6803F00703FB600C4BDB6814
:10583800BB60BA684FF6FF031340BB60FB681A02EF
:10584800BB68134343F0BF6343F40033BB60044AAF
:10585800BB68D36000BF1437BD4680BC704700BF2B
:1058680000ED00E080B400AF044BDB681B0A03F0D6
:1058780007031846BD4680BC704700BF00ED00E036
:1058880080B483B000AF03463960FB7197F90730E5
:10589800002B0ADB3B68DAB20C4997F90730120192
:1058A800D2B20B4483F800230AE03B68DAB2084915
:1058B800FB7903F00F03043B1201D2B20B441A76B2
:1058C80000BF0C37BD4680BC704700BF00E100E058
:1058D80000ED00E080B489B000AFF860B9607A608C
:1058E800FB6803F00703FB61FB69C3F10703042BA3
:1058F80028BF0423BB61FB690433062B02D9FB696B
:10590800033B00E000237B614FF0FF32BB6902FAE2
:1059180003F3DA43BB681A407B699A404FF0FF31C2
:105928007B6901FA03F3D9437B680B40134318469C
:105938002437BD4680BC704780B582B000AF786020
:105948007B68013BB3F1807F01D301230FE00A4A52
:105958007B68013B53600F214FF0FF30FFF790FF4A
:10596800054B00229A60044B07221A600023184650
:105978000837BD4680BD00BF10E000E080B582B0AA
:1059880000AF78607868FFF749FF00BF0837BD4669
:1059980080BD80B586B000AF0346B9607A60FB73FE
:1059A80000237B61FFF75EFF78617A68B9687869E0
:1059B800FFF790FF024697F90F3011461846FFF798
:1059C8005FFF00BF1837BD4680BD80B582B000AF0D
:1059D80078607868FFF7B0FF034618460837BD4679
:1059E80080BD000080B48BB000AF786039600023C0
:1059F8007B6200233B6233E101227B6A02FA03F3F4
:105A0800FB613B681B68FA691340BB61BA69FB69B3
:105A18009A4240F022813B685B68122B34D0122BEB
:105A28000DD8022B2BD0022B04D8002B31D0012B00
:105A38001CD048E0032B43D0112B1BD043E08F4AE6
:105A4800934226D08D4A934206D88D4A934220D05D
:105A58008C4A93421DD036E08B4A934219D08B4A28
:105A6800934216D08A4A934213D02CE03B68DB68F5
:105A78003B6228E03B68DB6804333B6223E03B6819
:105A8800DB6808333B621EE03B68DB680C333B6233
:105A980019E03B689B68002B02D104233B6212E0AB
:105AA8003B689B68012B05D108233B627B68FA6938
:105AB8001A6108E008233B627B68FA695A6102E0D0
:105AC80000233B6200BFBB69FF2B01D87B6801E064
